{
  "contractName": "OnBoarding",
  "abi": [
    {
      "inputs": [
        {
          "internalType": "address",
          "name": "_user",
          "type": "address"
        }
      ],
      "stateMutability": "nonpayable",
      "type": "constructor"
    },
    {
      "anonymous": false,
      "inputs": [
        {
          "indexed": false,
          "internalType": "address",
          "name": "player_address",
          "type": "address"
        },
        {
          "indexed": false,
          "internalType": "bool",
          "name": "status",
          "type": "bool"
        }
      ],
      "name": "newPrinterAddition",
      "type": "event"
    },
    {
      "inputs": [
        {
          "internalType": "address",
          "name": "printerAddress",
          "type": "address"
        },
        {
          "internalType": "bytes32",
          "name": "name",
          "type": "bytes32"
        },
        {
          "internalType": "enum MaterialType[]",
          "name": "suppertedMaterial",
          "type": "uint8[]"
        },
        {
          "internalType": "uint256[]",
          "name": "nozzles",
          "type": "uint256[]"
        },
        {
          "internalType": "uint256",
          "name": "nozzlesMounted",
          "type": "uint256"
        },
        {
          "internalType": "uint256",
          "name": "printTemperature",
          "type": "uint256"
        },
        {
          "internalType": "uint256",
          "name": "bedTemperature",
          "type": "uint256"
        },
        {
          "internalType": "uint256",
          "name": "volume",
          "type": "uint256"
        },
        {
          "internalType": "bool",
          "name": "soluble",
          "type": "bool"
        },
        {
          "internalType": "bool",
          "name": "foodSafety",
          "type": "bool"
        },
        {
          "internalType": "uint256",
          "name": "timestamp",
          "type": "uint256"
        }
      ],
      "name": "addPrinter",
      "outputs": [],
      "stateMutability": "payable",
      "type": "function",
      "payable": true
    },
    {
      "inputs": [],
      "name": "getMakerPrinters",
      "outputs": [
        {
          "components": [
            {
              "internalType": "bytes32",
              "name": "name",
              "type": "bytes32"
            },
            {
              "internalType": "enum MaterialType[]",
              "name": "supportedMaterial",
              "type": "uint8[]"
            },
            {
              "components": [
                {
                  "internalType": "bytes32",
                  "name": "name",
                  "type": "bytes32"
                },
                {
                  "internalType": "enum MaterialType",
                  "name": "mType",
                  "type": "uint8"
                },
                {
                  "internalType": "enum MaterialColor",
                  "name": "color",
                  "type": "uint8"
                },
                {
                  "internalType": "uint256",
                  "name": "quantityKG",
                  "type": "uint256"
                },
                {
                  "internalType": "uint256",
                  "name": "printTemperature",
                  "type": "uint256"
                },
                {
                  "internalType": "uint256",
                  "name": "bedTemperature",
                  "type": "uint256"
                },
                {
                  "internalType": "uint256",
                  "name": "timestampCreation",
                  "type": "uint256"
                }
              ],
              "internalType": "struct MaterialDetails",
              "name": "mountedMaterial",
              "type": "tuple"
            },
            {
              "internalType": "uint256[]",
              "name": "nozzles",
              "type": "uint256[]"
            },
            {
              "internalType": "uint256",
              "name": "mountedNozzles",
              "type": "uint256"
            },
            {
              "internalType": "uint256",
              "name": "maxPrintTemperature",
              "type": "uint256"
            },
            {
              "internalType": "uint256",
              "name": "maxBedTemperature",
              "type": "uint256"
            },
            {
              "internalType": "uint256",
              "name": "volume",
              "type": "uint256"
            },
            {
              "internalType": "bool",
              "name": "soluble",
              "type": "bool"
            },
            {
              "internalType": "bool",
              "name": "foodSafety",
              "type": "bool"
            },
            {
              "internalType": "bool",
              "name": "avaiable",
              "type": "bool"
            },
            {
              "internalType": "uint256",
              "name": "timestampModify",
              "type": "uint256"
            }
          ],
          "internalType": "struct Printer[]",
          "name": "mprinters",
          "type": "tuple[]"
        }
      ],
      "stateMutability": "view",
      "type": "function",
      "constant": true
    },
    {
      "inputs": [],
      "name": "getMakerNPrinters",
      "outputs": [
        {
          "internalType": "uint256",
          "name": "Nprinters",
          "type": "uint256"
        }
      ],
      "stateMutability": "view",
      "type": "function",
      "constant": true
    },
    {
      "inputs": [
        {
          "internalType": "uint256",
          "name": "timestamp",
          "type": "uint256"
        }
      ],
      "name": "getMakerNPrintersBeforeTimestamp",
      "outputs": [
        {
          "internalType": "uint256",
          "name": "Nprinters",
          "type": "uint256"
        }
      ],
      "stateMutability": "view",
      "type": "function",
      "constant": true
    },
    {
      "inputs": [
        {
          "internalType": "uint256",
          "name": "timestamp",
          "type": "uint256"
        }
      ],
      "name": "getMakerPrintersBeforeTimestamp",
      "outputs": [
        {
          "components": [
            {
              "internalType": "address",
              "name": "maker",
              "type": "address"
            },
            {
              "components": [
                {
                  "internalType": "bytes32",
                  "name": "name",
                  "type": "bytes32"
                },
                {
                  "internalType": "enum MaterialType[]",
                  "name": "supportedMaterial",
                  "type": "uint8[]"
                },
                {
                  "components": [
                    {
                      "internalType": "bytes32",
                      "name": "name",
                      "type": "bytes32"
                    },
                    {
                      "internalType": "enum MaterialType",
                      "name": "mType",
                      "type": "uint8"
                    },
                    {
                      "internalType": "enum MaterialColor",
                      "name": "color",
                      "type": "uint8"
                    },
                    {
                      "internalType": "uint256",
                      "name": "quantityKG",
                      "type": "uint256"
                    },
                    {
                      "internalType": "uint256",
                      "name": "printTemperature",
                      "type": "uint256"
                    },
                    {
                      "internalType": "uint256",
                      "name": "bedTemperature",
                      "type": "uint256"
                    },
                    {
                      "internalType": "uint256",
                      "name": "timestampCreation",
                      "type": "uint256"
                    }
                  ],
                  "internalType": "struct MaterialDetails",
                  "name": "mountedMaterial",
                  "type": "tuple"
                },
                {
                  "internalType": "uint256[]",
                  "name": "nozzles",
                  "type": "uint256[]"
                },
                {
                  "internalType": "uint256",
                  "name": "mountedNozzles",
                  "type": "uint256"
                },
                {
                  "internalType": "uint256",
                  "name": "maxPrintTemperature",
                  "type": "uint256"
                },
                {
                  "internalType": "uint256",
                  "name": "maxBedTemperature",
                  "type": "uint256"
                },
                {
                  "internalType": "uint256",
                  "name": "volume",
                  "type": "uint256"
                },
                {
                  "internalType": "bool",
                  "name": "soluble",
                  "type": "bool"
                },
                {
                  "internalType": "bool",
                  "name": "foodSafety",
                  "type": "bool"
                },
                {
                  "internalType": "bool",
                  "name": "avaiable",
                  "type": "bool"
                },
                {
                  "internalType": "uint256",
                  "name": "timestampModify",
                  "type": "uint256"
                }
              ],
              "internalType": "struct Printer",
              "name": "printer",
              "type": "tuple"
            }
          ],
          "internalType": "struct MakerPrinters[]",
          "name": "mprinters",
          "type": "tuple[]"
        }
      ],
      "stateMutability": "view",
      "type": "function",
      "constant": true
    },
    {
      "inputs": [
        {
          "internalType": "bytes32",
          "name": "name",
          "type": "bytes32"
        },
        {
          "internalType": "enum MaterialType",
          "name": "mType",
          "type": "uint8"
        },
        {
          "internalType": "enum MaterialColor",
          "name": "mColor",
          "type": "uint8"
        },
        {
          "internalType": "uint256",
          "name": "quantityKG",
          "type": "uint256"
        },
        {
          "internalType": "uint256",
          "name": "printTemp",
          "type": "uint256"
        },
        {
          "internalType": "uint256",
          "name": "bedTemp",
          "type": "uint256"
        },
        {
          "internalType": "uint256",
          "name": "timestamp",
          "type": "uint256"
        }
      ],
      "name": "addMaterials",
      "outputs": [
        {
          "internalType": "enum MaterialType",
          "name": "",
          "type": "uint8"
        }
      ],
      "stateMutability": "payable",
      "type": "function",
      "payable": true
    },
    {
      "inputs": [],
      "name": "getMaterials",
      "outputs": [
        {
          "components": [
            {
              "internalType": "bytes32",
              "name": "name",
              "type": "bytes32"
            },
            {
              "internalType": "enum MaterialType",
              "name": "mType",
              "type": "uint8"
            },
            {
              "internalType": "enum MaterialColor",
              "name": "color",
              "type": "uint8"
            },
            {
              "internalType": "uint256",
              "name": "quantityKG",
              "type": "uint256"
            },
            {
              "internalType": "uint256",
              "name": "printTemperature",
              "type": "uint256"
            },
            {
              "internalType": "uint256",
              "name": "bedTemperature",
              "type": "uint256"
            },
            {
              "internalType": "uint256",
              "name": "timestampCreation",
              "type": "uint256"
            }
          ],
          "internalType": "struct MaterialDetails[]",
          "name": "av_materials",
          "type": "tuple[]"
        }
      ],
      "stateMutability": "view",
      "type": "function",
      "constant": true
    },
    {
      "inputs": [
        {
          "internalType": "bytes32",
          "name": "name",
          "type": "bytes32"
        },
        {
          "internalType": "enum MaterialType",
          "name": "mType",
          "type": "uint8"
        },
        {
          "internalType": "enum MaterialColor",
          "name": "mColor",
          "type": "uint8"
        },
        {
          "internalType": "uint256",
          "name": "quantityKG",
          "type": "uint256"
        },
        {
          "internalType": "uint256",
          "name": "printTemp",
          "type": "uint256"
        },
        {
          "internalType": "uint256",
          "name": "bedTemp",
          "type": "uint256"
        },
        {
          "internalType": "uint256",
          "name": "timestamp",
          "type": "uint256"
        }
      ],
      "name": "updateMaterial",
      "outputs": [],
      "stateMutability": "payable",
      "type": "function",
      "payable": true
    },
    {
      "inputs": [
        {
          "internalType": "bytes32",
          "name": "name",
          "type": "bytes32"
        },
        {
          "internalType": "enum MaterialType",
          "name": "mType",
          "type": "uint8"
        }
      ],
      "name": "removeMaterial",
      "outputs": [],
      "stateMutability": "payable",
      "type": "function",
      "payable": true
    },
    {
      "inputs": [
        {
          "internalType": "bytes32",
          "name": "name",
          "type": "bytes32"
        },
        {
          "internalType": "enum MaterialType",
          "name": "mType",
          "type": "uint8"
        },
        {
          "internalType": "address",
          "name": "printer",
          "type": "address"
        },
        {
          "internalType": "uint256",
          "name": "timestamp",
          "type": "uint256"
        }
      ],
      "name": "mountMaterial",
      "outputs": [],
      "stateMutability": "payable",
      "type": "function",
      "payable": true
    },
    {
      "inputs": [
        {
          "internalType": "uint256",
          "name": "timestamp",
          "type": "uint256"
        }
      ],
      "name": "getMaterialsBeforeTimestamp",
      "outputs": [
        {
          "components": [
            {
              "internalType": "address",
              "name": "maker",
              "type": "address"
            },
            {
              "components": [
                {
                  "internalType": "bytes32",
                  "name": "name",
                  "type": "bytes32"
                },
                {
                  "internalType": "enum MaterialType",
                  "name": "mType",
                  "type": "uint8"
                },
                {
                  "internalType": "enum MaterialColor",
                  "name": "color",
                  "type": "uint8"
                },
                {
                  "internalType": "uint256",
                  "name": "quantityKG",
                  "type": "uint256"
                },
                {
                  "internalType": "uint256",
                  "name": "printTemperature",
                  "type": "uint256"
                },
                {
                  "internalType": "uint256",
                  "name": "bedTemperature",
                  "type": "uint256"
                },
                {
                  "internalType": "uint256",
                  "name": "timestampCreation",
                  "type": "uint256"
                }
              ],
              "internalType": "struct MaterialDetails",
              "name": "material",
              "type": "tuple"
            }
          ],
          "internalType": "struct MakerMaterials[]",
          "name": "mats",
          "type": "tuple[]"
        }
      ],
      "stateMutability": "view",
      "type": "function",
      "constant": true
    },
    {
      "inputs": [
        {
          "internalType": "uint256",
          "name": "timestamp",
          "type": "uint256"
        }
      ],
      "name": "getNMaterialBeforeTimestamp",
      "outputs": [
        {
          "internalType": "uint256",
          "name": "n",
          "type": "uint256"
        }
      ],
      "stateMutability": "view",
      "type": "function",
      "constant": true
    }
  ],
  "bytecode": "0x61016060405260006080819052600360a081905260c082905260e08290526101008290526101208290526101408290528180556001805461ffff191682179055600282905581905560048190556005553480156200005c57600080fd5b50604051620036a9380380620036a98339810160408190526200007f91620000a5565b600b80546001600160a01b0319166001600160a01b0392909216919091179055620000d7565b600060208284031215620000b857600080fd5b81516001600160a01b0381168114620000d057600080fd5b9392505050565b6135c280620000e76000396000f3fe6080604052600436106100a75760003560e01c806380dfedcd1161006457806380dfedcd1461016f578063a6bc773814610191578063b365bdf9146101a4578063c30b4769146101c4578063eb9383ef146101f1578063f894edec1461020457600080fd5b806320b83e21146100ac5780635a4c2963146100d75780636b04fb471461010557806372f78a5a1461012757806374d304761461013c5780637c8372a51461015c575b600080fd5b3480156100b857600080fd5b506100c1610231565b6040516100ce91906133d9565b60405180910390f35b3480156100e357600080fd5b506100f76100f23660046130dd565b6106da565b6040519081526020016100ce565b34801561011157600080fd5b50336000908152600860205260409020546100f7565b61013a610135366004613030565b6109c5565b005b34801561014857600080fd5b506100f76101573660046130dd565b610cd4565b61013a61016a366004613076565b610ea2565b34801561017b57600080fd5b506101846111c7565b6040516100ce9190613397565b61013a61019f366004613004565b61143d565b6101b76101b2366004613076565b611874565b6040516100ce919061343b565b3480156101d057600080fd5b506101e46101df3660046130dd565b611bd2565b6040516100ce919061331a565b61013a6101ff366004612f11565b612092565b34801561021057600080fd5b5061022461021f3660046130dd565b6125df565b6040516100ce91906132b7565b600b54604051629c95e160e41b81523360048201526060916001600160a01b0316906309c95e109060240160206040518083038186803b15801561027457600080fd5b505afa158015610288573d6000803e3d6000fd5b505050506040513d601f19601f820116820180604052508101906102ac9190612fe7565b15156001146102fe5760405162461bcd60e51b8152602060048201526019602482015278283630bcb2b9103737ba1034b7103a34329039bcb9ba32b69760391b60448201526064015b60405180910390fd5b600b5460405163e75600c360e01b81523360048201526001600160a01b039091169063e75600c39060240160206040518083038186803b15801561034157600080fd5b505afa158015610355573d6000803e3d6000fd5b505050506040513d601f19601f820116820180604052508101906103799190612fe7565b15156001146103d55760405162461bcd60e51b815260206004820152602260248201527f4f6e6c79204d616b65722063616e20676574207468656972205072696e746572604482015261399760f11b60648201526084016102f5565b3360009081526008602052604090205467ffffffffffffffff8111156103fd576103fd613550565b60405190808252806020026020018201604052801561043657816020015b610423612bf5565b81526020019060019003908161041b5790505b50905060005b336000908152600860205260409020548110156106d657336000908152600660209081526040808320600890925282208054919291849081106104815761048161353a565b60009182526020808320909101546001600160a01b03168352828101939093526040918201902081516101808101835281548152600182018054845181870281018701909552808552919492938584019390929083018282801561053457602002820191906000526020600020906000905b82829054906101000a900460ff16600381111561051257610512613524565b8152602060019283018181049485019490930390920291018084116104f35790505b50505091835250506040805160e08101909152600283018054825260038085015460209485019484019160ff9091169081111561057357610573613524565b600381111561058457610584613524565b81526020016001820160019054906101000a900460ff16600b8111156105ac576105ac613524565b600b8111156105bd576105bd613524565b815260200160028201548152602001600382015481526020016004820154815260200160058201548152505081526020016008820180548060200260200160405190810160405280929190818152602001828054801561063c57602002820191906000526020600020905b815481526020019060010190808311610628575b505050918352505060098201546020820152600a8201546040820152600b8201546060820152600c8201546080820152600d82015460ff808216151560a08401526101008083048216151560c08501526201000090920416151560e0830152600e9092015491015282518390839081106106b8576106b861353a565b602002602001018190525080806106ce906134f3565b91505061043c565b5090565b6000805b600b60009054906101000a90046001600160a01b03166001600160a01b031663f8a98d4c6040518163ffffffff1660e01b815260040160206040518083038186803b15801561072c57600080fd5b505afa158015610740573d6000803e3d6000fd5b505050506040513d601f19601f8201168201806040525081019061076491906130f6565b8110156109bf5760005b60038110156109ac5760005b600b5460405163093778d960e41b8152600481018590526009916000916001600160a01b03909116906393778d909060240160206040518083038186803b1580156107c457600080fd5b505afa1580156107d8573d6000803e3d6000fd5b505050506040513d601f19601f820116820180604052508101906107fc9190612eed565b6001600160a01b03166001600160a01b03168152602001908152602001600020600083600381111561083057610830613524565b600381111561084157610841613524565b600381111561085257610852613524565b815260208101919091526040016000205481101561099957600b5460405163093778d960e41b81526004810185905286916009916000916001600160a01b0316906393778d909060240160206040518083038186803b1580156108b457600080fd5b505afa1580156108c8573d6000803e3d6000fd5b505050506040513d601f19601f820116820180604052508101906108ec9190612eed565b6001600160a01b03166001600160a01b03168152602001908152602001600020600084600381111561092057610920613524565b600381111561093157610931613524565b600381111561094257610942613524565b815260200190815260200160002082815481106109615761096161353a565b90600052602060002090600602016005015410156109875783610983816134f3565b9450505b80610991816134f3565b91505061077a565b50806109a4816134f3565b91505061076e565b50806109b7816134f3565b9150506106de565b50919050565b600b5460405163e75600c360e01b81523360048201526001600160a01b039091169063e75600c39060240160206040518083038186803b158015610a0857600080fd5b505afa158015610a1c573d6000803e3d6000fd5b505050506040513d601f19601f82011682018060405250810190610a409190612fe7565b1515600114610a915760405162461bcd60e51b815260206004820181905260248201527f4f6e6c79204d616b65722063616e2064656c657465204d6174657269616c732e60448201526064016102f5565b610a9a84612b86565b1515600114610abb5760405162461bcd60e51b81526004016102f59061344f565b60005b33600090815260096020526040812090856003811115610ae057610ae0613524565b6003811115610af157610af1613524565b8152602081019190915260400160002054811015610ccd573360009081526009602052604081208691866003811115610b2c57610b2c613524565b6003811115610b3d57610b3d613524565b81526020019081526020016000208281548110610b5c57610b5c61353a565b9060005260206000209060060201600001541415610cbb5733600090815260096020526040812090856003811115610b9657610b96613524565b6003811115610ba757610ba7613524565b81526020019081526020016000208181548110610bc657610bc661353a565b60009182526020808320338452600680835260408086206001600160a01b038a168752909352919093209102909101805460028301908155600180830154600394850180549495939460ff90921693909260ff1990921691908490811115610c3057610c30613524565b0217905550600182810154908201805460ff61010093849004169261ff00199091169083600b811115610c6557610c65613524565b02179055506002828101549082015560038083015490820155600480830154908201556005918201549101553360009081526006602090815260408083206001600160a01b03871684529091529020600e018290555b80610cc5816134f3565b915050610abe565b5050505050565b6000805b600b60009054906101000a90046001600160a01b03166001600160a01b031663f8a98d4c6040518163ffffffff1660e01b815260040160206040518083038186803b158015610d2657600080fd5b505afa158015610d3a573d6000803e3d6000fd5b505050506040513d601f19601f82011682018060405250810190610d5e91906130f6565b8110156109bf57600b5460405163093778d960e41b8152600481018390526000916001600160a01b0316906393778d909060240160206040518083038186803b158015610daa57600080fd5b505afa158015610dbe573d6000803e3d6000fd5b505050506040513d601f19601f82011682018060405250810190610de29190612eed565b905060005b6001600160a01b038216600090815260086020526040902054811015610e8d576001600160a01b03821660009081526006602090815260408083206008909252822080548893919085908110610e3f57610e3f61353a565b60009182526020808320909101546001600160a01b031683528201929092526040019020600e01541015610e7b5783610e77816134f3565b9450505b80610e85816134f3565b915050610de7565b50508080610e9a906134f3565b915050610cd8565b600b5460405163e75600c360e01b81523360048201526001600160a01b039091169063e75600c39060240160206040518083038186803b158015610ee557600080fd5b505afa158015610ef9573d6000803e3d6000fd5b505050506040513d601f19601f82011682018060405250810190610f1d9190612fe7565b1515600114610f6e5760405162461bcd60e51b815260206004820181905260248201527f4f6e6c79204d616b65722063616e20757064617465204d6174657269616c732e60448201526064016102f5565b610f7787612b86565b1515600114610f985760405162461bcd60e51b81526004016102f59061344f565b60005b33600090815260096020526040812090886003811115610fbd57610fbd613524565b6003811115610fce57610fce613524565b81526020810191909152604001600020548110156111bd57336000908152600960205260408120899189600381111561100957611009613524565b600381111561101a5761101a613524565b815260200190815260200160002082815481106110395761103961353a565b90600052602060002090600602016000015414156111ab576040518060e0016040528089815260200188600381111561107457611074613524565b815260200187600b81111561108b5761108b613524565b81526020018681526020018581526020018481526020018381525060096000336001600160a01b03166001600160a01b0316815260200190815260200160002060008960038111156110df576110df613524565b60038111156110f0576110f0613524565b8152602001908152602001600020828154811061110f5761110f61353a565b90600052602060002090600602016000820151816000015560208201518160010160006101000a81548160ff0219169083600381111561115157611151613524565b0217905550604082015160018201805461ff00191661010083600b81111561117b5761117b613524565b0217905550606082015160028201556080820151600382015560a0820151600482015560c0909101516005909101555b806111b5816134f3565b915050610f9b565b5050505050505050565b336000908152600960209081526040808320600184529091528082205460028352818320548380529183205460609392611200916134db565b61120a91906134db565b90508067ffffffffffffffff81111561122557611225613550565b60405190808252806020026020018201604052801561125e57816020015b61124b612c61565b8152602001906001900390816112435790505b50915060005b60038110156114385760005b3360009081526009602052604081209083600381111561129257611292613524565b60038111156112a3576112a3613524565b60038111156112b4576112b4613524565b815260208101919091526040016000205481101561142557336000908152600960205260408120908360038111156112ee576112ee613524565b60038111156112ff576112ff613524565b600381111561131057611310613524565b8152602001908152602001600020818154811061132f5761132f61353a565b90600052602060002090600602016040518060e0016040529081600082015481526020016001820160009054906101000a900460ff16600381111561137657611376613524565b600381111561138757611387613524565b81526020016001820160019054906101000a900460ff16600b8111156113af576113af613524565b600b8111156113c0576113c0613524565b8152600282015460208201526003820154604082015260048201546060820152600590910154608090910152846113f783856134db565b815181106114075761140761353a565b6020026020010181905250808061141d906134f3565b915050611270565b5080611430816134f3565b915050611264565b505090565b600b5460405163e75600c360e01b81523360048201526001600160a01b039091169063e75600c39060240160206040518083038186803b15801561148057600080fd5b505afa158015611494573d6000803e3d6000fd5b505050506040513d601f19601f820116820180604052508101906114b89190612fe7565b15156001146115095760405162461bcd60e51b815260206004820181905260248201527f4f6e6c79204d616b65722063616e2064656c657465204d6174657269616c732e60448201526064016102f5565b61151282612b86565b15156001146115335760405162461bcd60e51b81526004016102f59061344f565b60005b3360009081526009602052604081209083600381111561155857611558613524565b600381111561156957611569613524565b81526020810191909152604001600020548110156116f55733600090815260096020526040812084918460038111156115a4576115a4613524565b60038111156115b5576115b5613524565b815260200190815260200160002082815481106115d4576115d461353a565b90600052602060002090600602016000015414156116e3573360009081526009602052604081208184600381111561160e5761160e613524565b600381111561161f5761161f613524565b8152602001908152602001600020828154811061163e5761163e61353a565b600091825260209091208254600690920201908155600180830154818301805460ff90921692909160ff19169083600381111561167d5761167d613524565b0217905550600182810154908201805460ff61010093849004169261ff00199091169083600b8111156116b2576116b2613524565b0217905550600282015481600201556003820154816003015560048201548160040155600582015481600501559050505b806116ed816134f3565b915050611536565b5060005b3360009081526008602052604090205481101561186f57336000908152600660209081526040808320600890925282208054869391908590811061173f5761173f61353a565b60009182526020808320909101546001600160a01b03168352820192909252604001902060020154141561185d573360009081526006602090815260408083206008909252822080548391908590811061179b5761179b61353a565b60009182526020808320909101546001600160a01b03168352820192909252604001902081546002820190815560018381015460039384018054939460ff90921693909260ff199091169184908111156117f7576117f7613524565b0217905550600182810154908201805460ff61010093849004169261ff00199091169083600b81111561182c5761182c613524565b0217905550600282015481600201556003820154816003015560048201548160040155600582015481600501559050505b80611867816134f3565b9150506116f9565b505050565b600b5460405163e75600c360e01b81523360048201526000916001600160a01b03169063e75600c39060240160206040518083038186803b1580156118b857600080fd5b505afa1580156118cc573d6000803e3d6000fd5b505050506040513d601f19601f820116820180604052508101906118f09190612fe7565b15156001146119415760405162461bcd60e51b815260206004820152601c60248201527f4f6e6c79204d616b65722063616e20616464204d6174657269616c2e0000000060448201526064016102f5565b600086600b81111561195557611955613524565b14156119955760405162461bcd60e51b815260206004820152600f60248201526e10dbdb1bdc881b9bdd081d985b1a59608a1b60448201526064016102f5565b60038760038111156119a9576119a9613524565b14156119ec5760405162461bcd60e51b815260206004820152601260248201527113585d195c9a585b081b9bdd081d985b1a5960721b60448201526064016102f5565b6119f588612b86565b15611a555760405162461bcd60e51b815260206004820152602a60248201527f546865726520697320616c72656164792061206d6174657269616c20776974686044820152692074686973206e616d6560b01b60648201526084016102f5565b60006040518060e001604052808a8152602001896003811115611a7a57611a7a613524565b815260200188600b811115611a9157611a91613524565b815260200187815260200186815260200185815260200184815250905060096000336001600160a01b03166001600160a01b031681526020019081526020016000206000896003811115611ae757611ae7613524565b6003811115611af857611af8613524565b81526020808201929092526040016000908120805460018181018355918352918390208451600690930201918255918301518183018054859460ff1990911690836003811115611b4a57611b4a613524565b0217905550604082015160018201805461ff00191661010083600b811115611b7457611b74613524565b0217905550606082015160028201556080820151600382015560a0820151600482015560c0909101516005909101555050336000908152600a6020908152604082208054600181018255908352912001969096555092949350505050565b6060611bdd82610cd4565b67ffffffffffffffff811115611bf557611bf5613550565b604051908082528060200260200182016040528015611c2e57816020015b611c1b612c9f565b815260200190600190039081611c135790505b5090506000805b600b60009054906101000a90046001600160a01b03166001600160a01b031663f8a98d4c6040518163ffffffff1660e01b815260040160206040518083038186803b158015611c8357600080fd5b505afa158015611c97573d6000803e3d6000fd5b505050506040513d601f19601f82011682018060405250810190611cbb91906130f6565b81101561208b57600b5460405163093778d960e41b8152600481018390526000916001600160a01b0316906393778d909060240160206040518083038186803b158015611d0757600080fd5b505afa158015611d1b573d6000803e3d6000fd5b505050506040513d601f19601f82011682018060405250810190611d3f9190612eed565b905060005b6001600160a01b038216600090815260086020526040902054811015612076576001600160a01b03821660009081526006602090815260408083206008909252822080548993919085908110611d9c57611d9c61353a565b60009182526020808320909101546001600160a01b031683528201929092526040019020600e01541015612064576040805180820182526001600160a01b03841680825260009081526006602090815283822060088252938220805493949185019391929186908110611e1157611e1161353a565b60009182526020808320909101546001600160a01b031683528281019390935260409182019020815161018081018352815481526001820180548451818702810187019095528085529194929385840193909290830182828015611ec457602002820191906000526020600020906000905b82829054906101000a900460ff166003811115611ea257611ea2613524565b815260206001928301818104948501949093039092029101808411611e835790505b50505091835250506040805160e08101909152600283018054825260038085015460209485019484019160ff90911690811115611f0357611f03613524565b6003811115611f1457611f14613524565b81526020016001820160019054906101000a900460ff16600b811115611f3c57611f3c613524565b600b811115611f4d57611f4d613524565b8152602001600282015481526020016003820154815260200160048201548152602001600582015481525050815260200160088201805480602002602001604051908101604052809291908181526020018280548015611fcc57602002820191906000526020600020905b815481526020019060010190808311611fb8575b505050918352505060098201546020820152600a8201546040820152600b8201546060820152600c8201546080820152600d82015460ff808216151560a08401526101008083048216151560c08501526201000090920416151560e0830152600e909201549101529052855186908690811061204a5761204a61353a565b60200260200101819052508380612060906134f3565b9450505b8061206e816134f3565b915050611d44565b50508080612083906134f3565b915050611c35565b5050919050565b600b54604051629c95e160e41b81523360048201526001600160a01b03909116906309c95e109060240160206040518083038186803b1580156120d457600080fd5b505afa1580156120e8573d6000803e3d6000fd5b505050506040513d601f19601f8201168201806040525081019061210c9190612fe7565b15156001146121595760405162461bcd60e51b8152602060048201526019602482015278283630bcb2b9103737ba1034b7103a34329039bcb9ba32b69760391b60448201526064016102f5565b600b5460405163e75600c360e01b81523360048201526001600160a01b039091169063e75600c39060240160206040518083038186803b15801561219c57600080fd5b505afa1580156121b0573d6000803e3d6000fd5b505050506040513d601f19601f820116820180604052508101906121d49190612fe7565b15156001146122255760405162461bcd60e51b815260206004820152601c60248201527f4f6e6c79204d616b65722063616e20616464205072696e746572732e0000000060448201526064016102f5565b60408051610180810182528b815260208082018c9052825160e081018452600080548252600154909484019285919083019060ff16600381111561226b5761226b613524565b600381111561227c5761227c613524565b81526020016001820160019054906101000a900460ff16600b8111156122a4576122a4613524565b600b8111156122b5576122b5613524565b815260200160028201548152602001600382015481526020016004820154815260200160058201548152505081526020018a8152602001898152602001888152602001878152602001868152602001851515815260200184151581526020016001151581526020018381525090508060066000336001600160a01b03166001600160a01b0316815260200190815260200160002060008e6001600160a01b03166001600160a01b03168152602001908152602001600020600082015181600001556020820151816001019080519060200190612392929190612cc7565b506040820151805160028301908155602082015160038085018054909160ff199091169060019084908111156123ca576123ca613524565b0217905550604082015160018201805461ff00191661010083600b8111156123f4576123f4613524565b021790555060608281015160028301556080830151600383015560a0830151600483015560c090920151600590910155820151805161243d916008840191602090910190612d77565b506080820151816009015560a082015181600a015560c082015181600b015560e082015181600c015561010082015181600d0160006101000a81548160ff02191690831515021790555061012082015181600d0160016101000a81548160ff02191690831515021790555061014082015181600d0160026101000a81548160ff02191690831515021790555061016082015181600e0155905050600160076000336001600160a01b03166001600160a01b0316815260200190815260200160002060006101000a81548160ff02191690831515021790555060086000336001600160a01b03166001600160a01b031681526020019081526020016000208c9080600181540180825580915050600190039060005260206000200160009091909190916101000a8154816001600160a01b0302191690836001600160a01b031602179055507f68f1f4a765c80cce6152bba70adcfe422531198b0d733f8555bd9b2f1c0feb443360016040516125c99291906001600160a01b039290921682521515602082015260400190565b60405180910390a1505050505050505050505050565b60606125ea826106da565b67ffffffffffffffff81111561260257612602613550565b60405190808252806020026020018201604052801561263b57816020015b612628612db2565b8152602001906001900390816126205790505b5090506000805b600b60009054906101000a90046001600160a01b03166001600160a01b031663f8a98d4c6040518163ffffffff1660e01b815260040160206040518083038186803b15801561269057600080fd5b505afa1580156126a4573d6000803e3d6000fd5b505050506040513d601f19601f820116820180604052508101906126c891906130f6565b81101561208b5760005b6003811015612b735760005b600b5460405163093778d960e41b8152600481018590526009916000916001600160a01b03909116906393778d909060240160206040518083038186803b15801561272857600080fd5b505afa15801561273c573d6000803e3d6000fd5b505050506040513d601f19601f820116820180604052508101906127609190612eed565b6001600160a01b03166001600160a01b03168152602001908152602001600020600083600381111561279457612794613524565b60038111156127a5576127a5613524565b60038111156127b6576127b6613524565b8152602081019190915260400160002054811015612b6057600b5460405163093778d960e41b81526004810185905287916009916000916001600160a01b0316906393778d909060240160206040518083038186803b15801561281857600080fd5b505afa15801561282c573d6000803e3d6000fd5b505050506040513d601f19601f820116820180604052508101906128509190612eed565b6001600160a01b03166001600160a01b03168152602001908152602001600020600084600381111561288457612884613524565b600381111561289557612895613524565b60038111156128a6576128a6613524565b815260200190815260200160002082815481106128c5576128c561353a565b9060005260206000209060060201600501541015612b4e576040805180820191829052600b5463093778d960e41b909252604481018590529081906001600160a01b03166393778d906064830160206040518083038186803b15801561292a57600080fd5b505afa15801561293e573d6000803e3d6000fd5b505050506040513d601f19601f820116820180604052508101906129629190612eed565b6001600160a01b039081168252600b5460405163093778d960e41b81526004810188905260209093019260099260009216906393778d909060240160206040518083038186803b1580156129b557600080fd5b505afa1580156129c9573d6000803e3d6000fd5b505050506040513d601f19601f820116820180604052508101906129ed9190612eed565b6001600160a01b03166001600160a01b031681526020019081526020016000206000866003811115612a2157612a21613524565b6003811115612a3257612a32613524565b6003811115612a4357612a43613524565b81526020019081526020016000208381548110612a6257612a6261353a565b90600052602060002090600602016040518060e0016040529081600082015481526020016001820160009054906101000a900460ff166003811115612aa957612aa9613524565b6003811115612aba57612aba613524565b81526020016001820160019054906101000a900460ff16600b811115612ae257612ae2613524565b600b811115612af357612af3613524565b8152602001600282015481526020016003820154815260200160048201548152602001600582015481525050815250858581518110612b3457612b3461353a565b60200260200101819052508380612b4a906134f3565b9450505b80612b58816134f3565b9150506126de565b5080612b6b816134f3565b9150506126d2565b5080612b7e816134f3565b915050612642565b600080805b336000908152600a6020526040902054811015612bee57336000908152600a60205260409020805485919083908110612bc657612bc661353a565b90600052602060002001541415612bdc57600191505b80612be6816134f3565b915050612b8b565b5092915050565b60408051610180810182526000815260606020820152908101612c16612c61565b81526020016060815260200160008152602001600081526020016000815260200160008152602001600015158152602001600015158152602001600015158152602001600081525090565b6040805160e0810190915260008082526020820190815260200160008152602001600081526020016000815260200160008152602001600081525090565b604051806040016040528060006001600160a01b03168152602001612cc2612bf5565b905290565b82805482825590600052602060002090601f01602090048101928215612d6b5791602002820160005b83821115612d3c57835183826101000a81548160ff02191690836003811115612d1b57612d1b613524565b02179055509260200192600101602081600001049283019260010302612cf0565b8015612d695782816101000a81549060ff0219169055600101602081600001049283019260010302612d3c565b505b506106d6929150612dd5565b828054828255906000526020600020908101928215612d6b579160200282015b82811115612d6b578251825591602001919060010190612d97565b604051806040016040528060006001600160a01b03168152602001612cc2612c61565b5b808211156106d65760008155600101612dd6565b8035612df581613566565b919050565b600082601f830112612e0b57600080fd5b81356020612e20612e1b836134b7565b613486565b80838252828201915082860187848660051b8901011115612e4057600080fd5b60005b85811015612e6657612e5482612ede565b84529284019290840190600101612e43565b5090979650505050505050565b600082601f830112612e8457600080fd5b81356020612e94612e1b836134b7565b80838252828201915082860187848660051b8901011115612eb457600080fd5b60005b85811015612e6657813584529284019290840190600101612eb7565b8035612df58161357e565b803560048110612df557600080fd5b600060208284031215612eff57600080fd5b8151612f0a81613566565b9392505050565b60008060008060008060008060008060006101608c8e031215612f3357600080fd5b612f3c8c612dea565b9a5060208c0135995067ffffffffffffffff8060408e01351115612f5f57600080fd5b612f6f8e60408f01358f01612dfa565b99508060608e01351115612f8257600080fd5b50612f938d60608e01358e01612e73565b975060808c0135965060a08c0135955060c08c0135945060e08c01359350612fbe6101008d01612ed3565b9250612fcd6101208d01612ed3565b91506101408c013590509295989b509295989b9093969950565b600060208284031215612ff957600080fd5b8151612f0a8161357e565b6000806040838503121561301757600080fd5b8235915061302760208401612ede565b90509250929050565b6000806000806080858703121561304657600080fd5b8435935061305660208601612ede565b9250604085013561306681613566565b9396929550929360600135925050565b600080600080600080600060e0888a03121561309157600080fd5b873596506130a160208901612ede565b95506040880135600c81106130b557600080fd5b969995985095966060810135965060808101359560a0820135955060c0909101359350915050565b6000602082840312156130ef57600080fd5b5035919050565b60006020828403121561310857600080fd5b5051919050565b600081518084526020808501945080840160005b8381101561314657613136878351613181565b9582019590820190600101613123565b509495945050505050565b600081518084526020808501945080840160005b8381101561314657815187529582019590820190600101613165565b6004811061319157613191613524565b9052565b8051825260208101516131ab6020840182613181565b506040810151600c81106131c1576131c1613524565b6040830152606081810151908301526080808201519083015260a0808201519083015260c090810151910152565b600061024082518452602083015181602086015261320f8286018261310f565b91505060408301516132246040860182613195565b5060608301516101208583038187015261323e8383613151565b925060808501519150610140828188015260a08601519250610160838189015260c087015161018089015260e08701516101a0890152610100870151935061328b6101c089018515159052565b9186015115156101e0880152850151151561020087015290930151610220909401939093525090919050565b6020808252825182820181905260009190848201906040850190845b8181101561330e57835180516001600160a01b031684528501516132f986850182613195565b509284019261010092909201916001016132d3565b50909695505050505050565b60006020808301818452808551808352604092508286019150828160051b87010184880160005b8381101561338957888303603f19018552815180516001600160a01b03168452870151878401879052613376878501826131ef565b9588019593505090860190600101613341565b509098975050505050505050565b6020808252825182820181905260009190848201906040850190845b8181101561330e576133c6838551613195565b9284019260e092909201916001016133b3565b6000602080830181845280855180835260408601915060408160051b870101925083870160005b8281101561342e57603f1988860301845261341c8583516131ef565b94509285019290850190600101613400565b5092979650505050505050565b602081016134498284613181565b92915050565b6020808252601a908201527f4e6f206d6174657269616c20776974682074686973206e616d65000000000000604082015260600190565b604051601f8201601f1916810167ffffffffffffffff811182821017156134af576134af613550565b604052919050565b600067ffffffffffffffff8211156134d1576134d1613550565b5060051b60200190565b600082198211156134ee576134ee61350e565b500190565b60006000198214156135075761350761350e565b5060010190565b634e487b7160e01b600052601160045260246000fd5b634e487b7160e01b600052602160045260246000fd5b634e487b7160e01b600052603260045260246000fd5b634e487b7160e01b600052604160045260246000fd5b6001600160a01b038116811461357b57600080fd5b50565b801515811461357b57600080fdfea264697066735822122045c2c48a284fee52c4293c00a4d6d1098f873cc63a4072f9b341b1a3e060d73564736f6c63430008070033",
  "immutableReferences": {},
  "source": "/*\n * @author Pipitone Antonio \n * @SPDX-License-Identifier: UNLICENSED\n */\npragma solidity >=0.4.22 <0.9.0;\npragma experimental ABIEncoderV2;\n\nimport \"./Structs/OnBoardingStructs.sol\";\n\nabstract contract IUser{\n    mapping (address => bool) public isPlayer;\n    function isMaker(address adr) virtual public view returns(bool);\n    function getNMakers() virtual public view returns(uint256);\n    address[] public makerAddress;\n}\n\ncontract OnBoarding {\n    // Material unused \n    MaterialDetails private NONE = MaterialDetails(\"\",MaterialType.NONE,MaterialColor.NONE,0,0,0,0);\n\n    //Printers\n    mapping (address => mapping(address => Printer)) private printers;\n    mapping (address => bool) private isPrinter;\n    mapping (address => address[]) private makerPrinters;\n\n    //Material\n    mapping (address => mapping (MaterialType => MaterialDetails[]) ) private materials;\n    mapping (address => bytes32[]) private materialsName;\n\n    event newPrinterAddition(address player_address, bool status);\n\n    IUser private Iuser;\n    constructor(address _user){\n        Iuser = IUser(_user);\n    }\n\n\n    //----------- Printers ---------------\n\n    function addPrinter(\n        address printerAddress,\n        bytes32 name, \n        MaterialType[] memory suppertedMaterial,\n        uint256[] memory nozzles,\n        uint256 nozzlesMounted, \n        uint256 printTemperature, \n        uint256 bedTemperature, \n        uint256 volume, \n        bool soluble,\n        bool foodSafety,\n        uint256 timestamp\n    ) public payable{\n        require( Iuser.isPlayer(msg.sender) == true, \"Player not in the system.\");\n        require( Iuser.isMaker(msg.sender) == true, \"Only Maker can add Printers.\");\n\n        Printer memory newPrinter = Printer(\n                                            name,\n                                            suppertedMaterial,\n                                            NONE, \n                                            nozzles, \n                                            nozzlesMounted, \n                                            printTemperature, \n                                            bedTemperature, \n                                            volume, \n                                            soluble, \n                                            foodSafety,\n                                            true,\n                                            timestamp\n                                            );\n        printers[msg.sender][printerAddress] = (newPrinter);  \n        isPrinter[msg.sender] = true;\n        makerPrinters[msg.sender].push(printerAddress);\n\n\n        emit newPrinterAddition(msg.sender, true);\n    }\n\n    function getMakerPrinters() \n    public view \n    returns (Printer[] memory mprinters){\n        require( Iuser.isPlayer(msg.sender) == true, \"Player not in the system.\");\n        require( Iuser.isMaker(msg.sender) == true, \"Only Maker can get their Printers.\");\n        mprinters = new Printer[](makerPrinters[msg.sender].length);\n        for (uint i = 0; i < makerPrinters[msg.sender].length; i++) {\n            mprinters[i] = printers[msg.sender][makerPrinters[msg.sender][i]];\n        }\n        return mprinters;\n    }\n\n    function getMakerNPrinters()\n    public view\n    returns(uint256 Nprinters){\n        return makerPrinters[msg.sender].length;\n    }\n\n\n    //---------------- Utils -------------------\n    function getMakerNPrintersBeforeTimestamp(uint256 timestamp)\n    public view\n    returns(uint256 Nprinters){\n        for (uint i = 0; i < Iuser.getNMakers(); i++){\n            address m = Iuser.makerAddress(i);\n            for (uint j = 0; j < makerPrinters[m].length; j++) {\n                if(printers[m][makerPrinters[m][j]].timestampModify<timestamp){\n                    Nprinters++;\n                }\n            }\n        }\n        return Nprinters;\n    }\n\n    function getMakerPrintersBeforeTimestamp(uint256 timestamp)\n    public view\n    returns(MakerPrinters[] memory mprinters){\n        mprinters = new MakerPrinters[](getMakerNPrintersBeforeTimestamp(timestamp));\n        uint256 pos = 0;\n        for (uint i = 0; i < Iuser.getNMakers(); i++){\n            address m = Iuser.makerAddress(i);\n            for (uint j = 0; j < makerPrinters[m].length; j++) {\n                if(printers[m][makerPrinters[m][j]].timestampModify<timestamp){\n                    mprinters[pos] = MakerPrinters(m,printers[m][makerPrinters[m][j]]);\n                    pos++;\n                }\n            }\n        }\n        return mprinters;\n    }\n    //--------------- End Utils ----------------\n\n\n     //----------- End Printers ---------------\n\n\n    //-----------Materials---------------\n\n    function checkMaterial(bytes32 name) \n    internal view returns(bool){\n        bool response = false;\n        for(uint i = 0; i < materialsName[msg.sender].length; i++ ){\n            if (materialsName[msg.sender][i] == name){\n                response = true;\n            }\n        }\n        return response;\n    }\n\n    function addMaterials(bytes32 name, MaterialType mType, MaterialColor mColor, uint256 quantityKG, uint256 printTemp, uint256 bedTemp, uint256 timestamp)\n    public payable\n    returns (MaterialType){\n        require( Iuser.isMaker(msg.sender) == true, \"Only Maker can add Material.\");\n        require(mColor != MaterialColor.NONE, \"Color not valid\");\n        require(mType != MaterialType.NONE, \"Material not valid\");\n\n        require(checkMaterial(name) == false, \"There is already a material with this name\");\n        MaterialDetails memory newMaterial = MaterialDetails(name, mType,mColor, quantityKG, printTemp, bedTemp, timestamp);    \n        materials[msg.sender][mType].push(newMaterial);\n        materialsName[msg.sender].push(name);\n        return mType;\n    }\n\n    function getMaterials()\n    public view\n    returns (MaterialDetails[] memory av_materials){\n        \n        uint256 n_materials = materials[msg.sender][MaterialType.ABS].length+materials[msg.sender][MaterialType.PETG].length+materials[msg.sender][MaterialType.PLA].length;\n        av_materials = new MaterialDetails[](n_materials);\n        for (uint i = 0; i < 3; i++){\n            for(uint j=0; j < materials[msg.sender][MaterialType(i)].length; j++){\n                av_materials[i+j] = materials[msg.sender][MaterialType(i)][j];\n            }\n        }\n        return av_materials;\n    }\n\n    function updateMaterial(bytes32 name, MaterialType mType, MaterialColor mColor, uint256 quantityKG, uint256 printTemp, uint256 bedTemp, uint256 timestamp)\n    public payable{\n        require( Iuser.isMaker(msg.sender) == true, \"Only Maker can update Materials.\");\n        require(checkMaterial(name) == true, \"No material with this name\");\n\n        for(uint j=0; j < materials[msg.sender][mType].length; j++){\n            if (materials[msg.sender][mType][j].name==name){\n                materials[msg.sender][mType][j] = MaterialDetails(name,mType, mColor, quantityKG, printTemp, bedTemp, timestamp); \n            }\n        }\n    }\n\n    function removeMaterial(bytes32 name, MaterialType mType) \n    public payable{\n        require( Iuser.isMaker(msg.sender) == true, \"Only Maker can delete Materials.\");\n        require(checkMaterial(name) == true, \"No material with this name\");\n\n        for(uint j=0; j < materials[msg.sender][mType].length; j++){\n            if (materials[msg.sender][mType][j].name==name){\n                materials[msg.sender][mType][j] = NONE;\n            }\n        }\n        for (uint i = 0; i < makerPrinters[msg.sender].length; i++) {\n            if(printers[msg.sender][makerPrinters[msg.sender][i]].mountedMaterial.name == name){\n                printers[msg.sender][makerPrinters[msg.sender][i]].mountedMaterial = NONE;\n            }\n        }\n    }\n\n    function mountMaterial(bytes32 name, MaterialType mType, address printer, uint256 timestamp)\n    public payable{\n        require(Iuser.isMaker(msg.sender) == true, \"Only Maker can delete Materials.\");\n        require(checkMaterial(name) == true, \"No material with this name\");\n        \n        for(uint j=0; j < materials[msg.sender][mType].length; j++){\n            if (materials[msg.sender][mType][j].name==name){\n                printers[msg.sender][printer].mountedMaterial = materials[msg.sender][mType][j];\n                printers[msg.sender][printer].timestampModify = timestamp;\n            }\n        }\n    }\n\n    //---------------- Utils -------------------\n    function getMaterialsBeforeTimestamp(uint timestamp)\n    public view\n    returns (MakerMaterials[] memory mats){\n        mats = new MakerMaterials[](getNMaterialBeforeTimestamp(timestamp));\n        uint pos = 0;\n        for (uint i = 0; i < Iuser.getNMakers(); i++){\n            for (uint t = 0; t < 3; t++){\n                for(uint j=0; j < materials[Iuser.makerAddress(i)][MaterialType(t)].length; j++){\n                    if  (materials[Iuser.makerAddress(i)][MaterialType(t)][j].timestampCreation<timestamp){\n                        mats[pos]=MakerMaterials(Iuser.makerAddress(i),materials[Iuser.makerAddress(i)][MaterialType(i)][j]);\n                        pos++;\n                    }\n                }\n            }\n        }\n        return mats;\n    }\n\n    function getNMaterialBeforeTimestamp(uint timestamp)\n    public view\n    returns (uint n){\n        for (uint i = 0; i < Iuser.getNMakers(); i++){\n            for (uint t = 0; t < 3; t++){\n                for(uint j=0; j < materials[Iuser.makerAddress(i)][MaterialType(t)].length; j++){\n                    if  (materials[Iuser.makerAddress(i)][MaterialType(t)][j].timestampCreation<timestamp){\n                        n++;\n                    }\n                }\n            }\n        }\n        return n;\n    }\n\n    //--------------- End Utils ----------------\n\n    //-----------End Materials---------------\n\n}",
  "sourcePath": "/Users/antoniopipitone/Desktop/Air Factories 2.0/af2-smart-contract/contracts/1_OnBoarding/OnBoarding.sol",
  "compiler": {
    "name": "solc",
    "version": "0.8.7+commit.e28d00a7.Emscripten.clang"
  },
  "schemaVersion": "3.4.4",
  "updatedAt": "2022-03-12T16:05:35.894Z",
  "networkType": "ethereum",
  "devdoc": {
    "kind": "dev",
    "methods": {},
    "version": 1
  },
  "userdoc": {
    "kind": "user",
    "methods": {},
    "version": 1
  }
}