{
  "contractName": "OnBoarding",
  "abi": [
    {
      "inputs": [
        {
          "internalType": "address",
          "name": "_user",
          "type": "address"
        }
      ],
      "stateMutability": "nonpayable",
      "type": "constructor"
    },
    {
      "anonymous": false,
      "inputs": [
        {
          "indexed": false,
          "internalType": "address",
          "name": "player_address",
          "type": "address"
        },
        {
          "indexed": false,
          "internalType": "bool",
          "name": "status",
          "type": "bool"
        }
      ],
      "name": "newPrinterAddition",
      "type": "event"
    },
    {
      "inputs": [
        {
          "internalType": "address",
          "name": "printerAddress",
          "type": "address"
        },
        {
          "internalType": "bytes32",
          "name": "name",
          "type": "bytes32"
        },
        {
          "internalType": "enum MaterialType[]",
          "name": "suppertedMaterial",
          "type": "uint8[]"
        },
        {
          "internalType": "uint256[]",
          "name": "nozzles",
          "type": "uint256[]"
        },
        {
          "internalType": "uint256",
          "name": "nozzlesMounted",
          "type": "uint256"
        },
        {
          "internalType": "uint256",
          "name": "printTemperature",
          "type": "uint256"
        },
        {
          "internalType": "uint256",
          "name": "bedTemperature",
          "type": "uint256"
        },
        {
          "internalType": "uint256",
          "name": "volume",
          "type": "uint256"
        },
        {
          "internalType": "bool",
          "name": "soluble",
          "type": "bool"
        },
        {
          "internalType": "bool",
          "name": "foodSafety",
          "type": "bool"
        },
        {
          "internalType": "uint256",
          "name": "timestamp",
          "type": "uint256"
        }
      ],
      "name": "addPrinter",
      "outputs": [],
      "stateMutability": "payable",
      "type": "function",
      "payable": true
    },
    {
      "inputs": [],
      "name": "getMakerPrinters",
      "outputs": [
        {
          "components": [
            {
              "internalType": "bytes32",
              "name": "name",
              "type": "bytes32"
            },
            {
              "internalType": "address",
              "name": "printerAddress",
              "type": "address"
            },
            {
              "internalType": "enum MaterialType[]",
              "name": "supportedMaterial",
              "type": "uint8[]"
            },
            {
              "components": [
                {
                  "internalType": "bytes32",
                  "name": "name",
                  "type": "bytes32"
                },
                {
                  "internalType": "enum MaterialType",
                  "name": "mType",
                  "type": "uint8"
                },
                {
                  "internalType": "enum MaterialColor",
                  "name": "color",
                  "type": "uint8"
                },
                {
                  "internalType": "uint256",
                  "name": "quantityKG",
                  "type": "uint256"
                },
                {
                  "internalType": "uint256",
                  "name": "printTemperature",
                  "type": "uint256"
                },
                {
                  "internalType": "uint256",
                  "name": "bedTemperature",
                  "type": "uint256"
                },
                {
                  "internalType": "uint256",
                  "name": "timestampCreation",
                  "type": "uint256"
                }
              ],
              "internalType": "struct MaterialDetails",
              "name": "mountedMaterial",
              "type": "tuple"
            },
            {
              "internalType": "uint256[]",
              "name": "nozzles",
              "type": "uint256[]"
            },
            {
              "internalType": "uint256",
              "name": "mountedNozzles",
              "type": "uint256"
            },
            {
              "internalType": "uint256",
              "name": "maxPrintTemperature",
              "type": "uint256"
            },
            {
              "internalType": "uint256",
              "name": "maxBedTemperature",
              "type": "uint256"
            },
            {
              "internalType": "uint256",
              "name": "volume",
              "type": "uint256"
            },
            {
              "internalType": "bool",
              "name": "soluble",
              "type": "bool"
            },
            {
              "internalType": "bool",
              "name": "foodSafety",
              "type": "bool"
            },
            {
              "internalType": "bool",
              "name": "avaiable",
              "type": "bool"
            },
            {
              "internalType": "uint256",
              "name": "timestampModify",
              "type": "uint256"
            }
          ],
          "internalType": "struct Printer[]",
          "name": "mprinters",
          "type": "tuple[]"
        }
      ],
      "stateMutability": "view",
      "type": "function",
      "constant": true
    },
    {
      "inputs": [],
      "name": "getMakerNPrinters",
      "outputs": [
        {
          "internalType": "uint256",
          "name": "Nprinters",
          "type": "uint256"
        }
      ],
      "stateMutability": "view",
      "type": "function",
      "constant": true
    },
    {
      "inputs": [
        {
          "internalType": "uint256",
          "name": "timestamp",
          "type": "uint256"
        }
      ],
      "name": "getMakerNPrintersBeforeTimestamp",
      "outputs": [
        {
          "internalType": "uint256",
          "name": "Nprinters",
          "type": "uint256"
        }
      ],
      "stateMutability": "view",
      "type": "function",
      "constant": true
    },
    {
      "inputs": [
        {
          "internalType": "uint256",
          "name": "timestamp",
          "type": "uint256"
        }
      ],
      "name": "getMakerPrintersBeforeTimestamp",
      "outputs": [
        {
          "components": [
            {
              "internalType": "address",
              "name": "maker",
              "type": "address"
            },
            {
              "components": [
                {
                  "internalType": "bytes32",
                  "name": "name",
                  "type": "bytes32"
                },
                {
                  "internalType": "address",
                  "name": "printerAddress",
                  "type": "address"
                },
                {
                  "internalType": "enum MaterialType[]",
                  "name": "supportedMaterial",
                  "type": "uint8[]"
                },
                {
                  "components": [
                    {
                      "internalType": "bytes32",
                      "name": "name",
                      "type": "bytes32"
                    },
                    {
                      "internalType": "enum MaterialType",
                      "name": "mType",
                      "type": "uint8"
                    },
                    {
                      "internalType": "enum MaterialColor",
                      "name": "color",
                      "type": "uint8"
                    },
                    {
                      "internalType": "uint256",
                      "name": "quantityKG",
                      "type": "uint256"
                    },
                    {
                      "internalType": "uint256",
                      "name": "printTemperature",
                      "type": "uint256"
                    },
                    {
                      "internalType": "uint256",
                      "name": "bedTemperature",
                      "type": "uint256"
                    },
                    {
                      "internalType": "uint256",
                      "name": "timestampCreation",
                      "type": "uint256"
                    }
                  ],
                  "internalType": "struct MaterialDetails",
                  "name": "mountedMaterial",
                  "type": "tuple"
                },
                {
                  "internalType": "uint256[]",
                  "name": "nozzles",
                  "type": "uint256[]"
                },
                {
                  "internalType": "uint256",
                  "name": "mountedNozzles",
                  "type": "uint256"
                },
                {
                  "internalType": "uint256",
                  "name": "maxPrintTemperature",
                  "type": "uint256"
                },
                {
                  "internalType": "uint256",
                  "name": "maxBedTemperature",
                  "type": "uint256"
                },
                {
                  "internalType": "uint256",
                  "name": "volume",
                  "type": "uint256"
                },
                {
                  "internalType": "bool",
                  "name": "soluble",
                  "type": "bool"
                },
                {
                  "internalType": "bool",
                  "name": "foodSafety",
                  "type": "bool"
                },
                {
                  "internalType": "bool",
                  "name": "avaiable",
                  "type": "bool"
                },
                {
                  "internalType": "uint256",
                  "name": "timestampModify",
                  "type": "uint256"
                }
              ],
              "internalType": "struct Printer",
              "name": "printer",
              "type": "tuple"
            }
          ],
          "internalType": "struct MakerPrinters[]",
          "name": "mprinters",
          "type": "tuple[]"
        }
      ],
      "stateMutability": "view",
      "type": "function",
      "constant": true
    },
    {
      "inputs": [
        {
          "internalType": "bytes32",
          "name": "name",
          "type": "bytes32"
        },
        {
          "internalType": "enum MaterialType",
          "name": "mType",
          "type": "uint8"
        },
        {
          "internalType": "enum MaterialColor",
          "name": "mColor",
          "type": "uint8"
        },
        {
          "internalType": "uint256",
          "name": "quantityKG",
          "type": "uint256"
        },
        {
          "internalType": "uint256",
          "name": "printTemp",
          "type": "uint256"
        },
        {
          "internalType": "uint256",
          "name": "bedTemp",
          "type": "uint256"
        },
        {
          "internalType": "uint256",
          "name": "timestamp",
          "type": "uint256"
        }
      ],
      "name": "addMaterials",
      "outputs": [
        {
          "internalType": "enum MaterialType",
          "name": "",
          "type": "uint8"
        }
      ],
      "stateMutability": "payable",
      "type": "function",
      "payable": true
    },
    {
      "inputs": [],
      "name": "getMaterials",
      "outputs": [
        {
          "components": [
            {
              "internalType": "bytes32",
              "name": "name",
              "type": "bytes32"
            },
            {
              "internalType": "enum MaterialType",
              "name": "mType",
              "type": "uint8"
            },
            {
              "internalType": "enum MaterialColor",
              "name": "color",
              "type": "uint8"
            },
            {
              "internalType": "uint256",
              "name": "quantityKG",
              "type": "uint256"
            },
            {
              "internalType": "uint256",
              "name": "printTemperature",
              "type": "uint256"
            },
            {
              "internalType": "uint256",
              "name": "bedTemperature",
              "type": "uint256"
            },
            {
              "internalType": "uint256",
              "name": "timestampCreation",
              "type": "uint256"
            }
          ],
          "internalType": "struct MaterialDetails[]",
          "name": "av_materials",
          "type": "tuple[]"
        }
      ],
      "stateMutability": "view",
      "type": "function",
      "constant": true
    },
    {
      "inputs": [
        {
          "internalType": "bytes32",
          "name": "name",
          "type": "bytes32"
        },
        {
          "internalType": "enum MaterialType",
          "name": "mType",
          "type": "uint8"
        },
        {
          "internalType": "enum MaterialColor",
          "name": "mColor",
          "type": "uint8"
        },
        {
          "internalType": "uint256",
          "name": "quantityKG",
          "type": "uint256"
        },
        {
          "internalType": "uint256",
          "name": "printTemp",
          "type": "uint256"
        },
        {
          "internalType": "uint256",
          "name": "bedTemp",
          "type": "uint256"
        },
        {
          "internalType": "uint256",
          "name": "timestamp",
          "type": "uint256"
        }
      ],
      "name": "updateMaterial",
      "outputs": [],
      "stateMutability": "payable",
      "type": "function",
      "payable": true
    },
    {
      "inputs": [
        {
          "internalType": "bytes32",
          "name": "name",
          "type": "bytes32"
        },
        {
          "internalType": "enum MaterialType",
          "name": "mType",
          "type": "uint8"
        }
      ],
      "name": "removeMaterial",
      "outputs": [],
      "stateMutability": "payable",
      "type": "function",
      "payable": true
    },
    {
      "inputs": [
        {
          "internalType": "bytes32",
          "name": "name",
          "type": "bytes32"
        },
        {
          "internalType": "enum MaterialType",
          "name": "mType",
          "type": "uint8"
        },
        {
          "internalType": "address",
          "name": "printer",
          "type": "address"
        },
        {
          "internalType": "uint256",
          "name": "timestamp",
          "type": "uint256"
        }
      ],
      "name": "mountMaterial",
      "outputs": [],
      "stateMutability": "payable",
      "type": "function",
      "payable": true
    },
    {
      "inputs": [
        {
          "internalType": "uint256",
          "name": "timestamp",
          "type": "uint256"
        }
      ],
      "name": "getMaterialsBeforeTimestamp",
      "outputs": [
        {
          "components": [
            {
              "internalType": "address",
              "name": "maker",
              "type": "address"
            },
            {
              "components": [
                {
                  "internalType": "bytes32",
                  "name": "name",
                  "type": "bytes32"
                },
                {
                  "internalType": "enum MaterialType",
                  "name": "mType",
                  "type": "uint8"
                },
                {
                  "internalType": "enum MaterialColor",
                  "name": "color",
                  "type": "uint8"
                },
                {
                  "internalType": "uint256",
                  "name": "quantityKG",
                  "type": "uint256"
                },
                {
                  "internalType": "uint256",
                  "name": "printTemperature",
                  "type": "uint256"
                },
                {
                  "internalType": "uint256",
                  "name": "bedTemperature",
                  "type": "uint256"
                },
                {
                  "internalType": "uint256",
                  "name": "timestampCreation",
                  "type": "uint256"
                }
              ],
              "internalType": "struct MaterialDetails",
              "name": "material",
              "type": "tuple"
            }
          ],
          "internalType": "struct MakerMaterials[]",
          "name": "mats",
          "type": "tuple[]"
        }
      ],
      "stateMutability": "view",
      "type": "function",
      "constant": true
    },
    {
      "inputs": [
        {
          "internalType": "uint256",
          "name": "timestamp",
          "type": "uint256"
        }
      ],
      "name": "getNMaterialBeforeTimestamp",
      "outputs": [
        {
          "internalType": "uint256",
          "name": "n",
          "type": "uint256"
        }
      ],
      "stateMutability": "view",
      "type": "function",
      "constant": true
    }
  ],
  "bytecode": "0x61016060405260006080819052600360a081905260c082905260e08290526101008290526101208290526101408290528180556001805461ffff191682179055600282905581905560048190556005553480156200005c57600080fd5b5060405162003739380380620037398339810160408190526200007f91620000a5565b600b80546001600160a01b0319166001600160a01b0392909216919091179055620000d7565b600060208284031215620000b857600080fd5b81516001600160a01b0381168114620000d057600080fd5b9392505050565b61365280620000e76000396000f3fe6080604052600436106100a75760003560e01c806380dfedcd1161006457806380dfedcd1461016f578063a6bc773814610191578063b365bdf9146101a4578063c30b4769146101c4578063eb9383ef146101f1578063f894edec1461020457600080fd5b806320b83e21146100ac5780635a4c2963146100d75780636b04fb471461010557806372f78a5a1461012757806374d304761461013c5780637c8372a51461015c575b600080fd5b3480156100b857600080fd5b506100c1610231565b6040516100ce9190613469565b60405180910390f35b3480156100e357600080fd5b506100f76100f2366004613151565b6106ea565b6040519081526020016100ce565b34801561011157600080fd5b50336000908152600860205260409020546100f7565b61013a6101353660046130a4565b6109d5565b005b34801561014857600080fd5b506100f7610157366004613151565b610ce5565b61013a61016a3660046130ea565b610eb3565b34801561017b57600080fd5b506101846111d8565b6040516100ce9190613427565b61013a61019f366004613078565b61144e565b6101b76101b23660046130ea565b611885565b6040516100ce91906134cb565b3480156101d057600080fd5b506101e46101df366004613151565b611be3565b6040516100ce91906133aa565b61013a6101ff366004612f85565b6120b3565b34801561021057600080fd5b5061022461021f366004613151565b61264c565b6040516100ce9190613347565b600b54604051629c95e160e41b81523360048201526060916001600160a01b0316906309c95e109060240160206040518083038186803b15801561027457600080fd5b505afa158015610288573d6000803e3d6000fd5b505050506040513d601f19601f820116820180604052508101906102ac919061305b565b15156001146102fe5760405162461bcd60e51b8152602060048201526019602482015278283630bcb2b9103737ba1034b7103a34329039bcb9ba32b69760391b60448201526064015b60405180910390fd5b600b5460405163e75600c360e01b81523360048201526001600160a01b039091169063e75600c39060240160206040518083038186803b15801561034157600080fd5b505afa158015610355573d6000803e3d6000fd5b505050506040513d601f19601f82011682018060405250810190610379919061305b565b15156001146103d55760405162461bcd60e51b815260206004820152602260248201527f4f6e6c79204d616b65722063616e20676574207468656972205072696e746572604482015261399760f11b60648201526084016102f5565b3360009081526008602052604090205467ffffffffffffffff8111156103fd576103fd6135e0565b60405190808252806020026020018201604052801561043657816020015b610423612c62565b81526020019060019003908161041b5790505b50905060005b336000908152600860205260409020548110156106e65733600090815260066020908152604080832060089092528220805491929184908110610481576104816135ca565b60009182526020808320909101546001600160a01b03908116845283820194909452604092830190912082516101a081018452815481526001820154909416848301526002810180548451818502810185018652818152929486019383018282801561053c57602002820191906000526020600020906000905b82829054906101000a900460ff16600381111561051a5761051a6135b4565b8152602060019283018181049485019490930390920291018084116104fb5790505b50505050508152602001600382016040518060e0016040529081600082015481526020016001820160009054906101000a900460ff166003811115610583576105836135b4565b6003811115610594576105946135b4565b81526020016001820160019054906101000a900460ff16600b8111156105bc576105bc6135b4565b600b8111156105cd576105cd6135b4565b815260200160028201548152602001600382015481526020016004820154815260200160058201548152505081526020016009820180548060200260200160405190810160405280929190818152602001828054801561064c57602002820191906000526020600020905b815481526020019060010190808311610638575b5050509183525050600a8201546020820152600b8201546040820152600c8201546060820152600d8201546080820152600e82015460ff808216151560a08401526101008083048216151560c08501526201000090920416151560e0830152600f9092015491015282518390839081106106c8576106c86135ca565b602002602001018190525080806106de90613583565b91505061043c565b5090565b6000805b600b60009054906101000a90046001600160a01b03166001600160a01b031663f8a98d4c6040518163ffffffff1660e01b815260040160206040518083038186803b15801561073c57600080fd5b505afa158015610750573d6000803e3d6000fd5b505050506040513d601f19601f82011682018060405250810190610774919061316a565b8110156109cf5760005b60038110156109bc5760005b600b5460405163093778d960e41b8152600481018590526009916000916001600160a01b03909116906393778d909060240160206040518083038186803b1580156107d457600080fd5b505afa1580156107e8573d6000803e3d6000fd5b505050506040513d601f19601f8201168201806040525081019061080c9190612f61565b6001600160a01b03166001600160a01b031681526020019081526020016000206000836003811115610840576108406135b4565b6003811115610851576108516135b4565b6003811115610862576108626135b4565b81526020810191909152604001600020548110156109a957600b5460405163093778d960e41b81526004810185905286916009916000916001600160a01b0316906393778d909060240160206040518083038186803b1580156108c457600080fd5b505afa1580156108d8573d6000803e3d6000fd5b505050506040513d601f19601f820116820180604052508101906108fc9190612f61565b6001600160a01b03166001600160a01b031681526020019081526020016000206000846003811115610930576109306135b4565b6003811115610941576109416135b4565b6003811115610952576109526135b4565b81526020019081526020016000208281548110610971576109716135ca565b9060005260206000209060060201600501541015610997578361099381613583565b9450505b806109a181613583565b91505061078a565b50806109b481613583565b91505061077e565b50806109c781613583565b9150506106ee565b50919050565b600b5460405163e75600c360e01b81523360048201526001600160a01b039091169063e75600c39060240160206040518083038186803b158015610a1857600080fd5b505afa158015610a2c573d6000803e3d6000fd5b505050506040513d601f19601f82011682018060405250810190610a50919061305b565b1515600114610aa15760405162461bcd60e51b815260206004820181905260248201527f4f6e6c79204d616b65722063616e2064656c657465204d6174657269616c732e60448201526064016102f5565b610aaa84612bf3565b1515600114610acb5760405162461bcd60e51b81526004016102f5906134df565b60005b33600090815260096020526040812090856003811115610af057610af06135b4565b6003811115610b0157610b016135b4565b8152602081019190915260400160002054811015610cde573360009081526009602052604081208691866003811115610b3c57610b3c6135b4565b6003811115610b4d57610b4d6135b4565b81526020019081526020016000208281548110610b6c57610b6c6135ca565b9060005260206000209060060201600001541415610ccc5733600090815260096020526040812090856003811115610ba657610ba66135b4565b6003811115610bb757610bb76135b4565b81526020019081526020016000208181548110610bd657610bd66135ca565b60009182526020808320338452600680835260408086206001600160a01b038a16875290935291909320910290910180546003808401918255600180840154600490950180549495939460ff90941693909260ff1990911691908490811115610c4157610c416135b4565b0217905550600182810154908201805460ff61010093849004169261ff00199091169083600b811115610c7657610c766135b4565b02179055506002828101549082015560038083015490820155600480830154908201556005918201549101553360009081526006602090815260408083206001600160a01b03871684529091529020600f018290555b80610cd681613583565b915050610ace565b5050505050565b6000805b600b60009054906101000a90046001600160a01b03166001600160a01b031663f8a98d4c6040518163ffffffff1660e01b815260040160206040518083038186803b158015610d3757600080fd5b505afa158015610d4b573d6000803e3d6000fd5b505050506040513d601f19601f82011682018060405250810190610d6f919061316a565b8110156109cf57600b5460405163093778d960e41b8152600481018390526000916001600160a01b0316906393778d909060240160206040518083038186803b158015610dbb57600080fd5b505afa158015610dcf573d6000803e3d6000fd5b505050506040513d601f19601f82011682018060405250810190610df39190612f61565b905060005b6001600160a01b038216600090815260086020526040902054811015610e9e576001600160a01b03821660009081526006602090815260408083206008909252822080548893919085908110610e5057610e506135ca565b60009182526020808320909101546001600160a01b031683528201929092526040019020600f01541015610e8c5783610e8881613583565b9450505b80610e9681613583565b915050610df8565b50508080610eab90613583565b915050610ce9565b600b5460405163e75600c360e01b81523360048201526001600160a01b039091169063e75600c39060240160206040518083038186803b158015610ef657600080fd5b505afa158015610f0a573d6000803e3d6000fd5b505050506040513d601f19601f82011682018060405250810190610f2e919061305b565b1515600114610f7f5760405162461bcd60e51b815260206004820181905260248201527f4f6e6c79204d616b65722063616e20757064617465204d6174657269616c732e60448201526064016102f5565b610f8887612bf3565b1515600114610fa95760405162461bcd60e51b81526004016102f5906134df565b60005b33600090815260096020526040812090886003811115610fce57610fce6135b4565b6003811115610fdf57610fdf6135b4565b81526020810191909152604001600020548110156111ce57336000908152600960205260408120899189600381111561101a5761101a6135b4565b600381111561102b5761102b6135b4565b8152602001908152602001600020828154811061104a5761104a6135ca565b90600052602060002090600602016000015414156111bc576040518060e00160405280898152602001886003811115611085576110856135b4565b815260200187600b81111561109c5761109c6135b4565b81526020018681526020018581526020018481526020018381525060096000336001600160a01b03166001600160a01b0316815260200190815260200160002060008960038111156110f0576110f06135b4565b6003811115611101576111016135b4565b81526020019081526020016000208281548110611120576111206135ca565b90600052602060002090600602016000820151816000015560208201518160010160006101000a81548160ff02191690836003811115611162576111626135b4565b0217905550604082015160018201805461ff00191661010083600b81111561118c5761118c6135b4565b0217905550606082015160028201556080820151600382015560a0820151600482015560c0909101516005909101555b806111c681613583565b915050610fac565b5050505050505050565b3360009081526009602090815260408083206001845290915280822054600283528183205483805291832054606093926112119161356b565b61121b919061356b565b90508067ffffffffffffffff811115611236576112366135e0565b60405190808252806020026020018201604052801561126f57816020015b61125c612cd5565b8152602001906001900390816112545790505b50915060005b60038110156114495760005b336000908152600960205260408120908360038111156112a3576112a36135b4565b60038111156112b4576112b46135b4565b60038111156112c5576112c56135b4565b815260208101919091526040016000205481101561143657336000908152600960205260408120908360038111156112ff576112ff6135b4565b6003811115611310576113106135b4565b6003811115611321576113216135b4565b81526020019081526020016000208181548110611340576113406135ca565b90600052602060002090600602016040518060e0016040529081600082015481526020016001820160009054906101000a900460ff166003811115611387576113876135b4565b6003811115611398576113986135b4565b81526020016001820160019054906101000a900460ff16600b8111156113c0576113c06135b4565b600b8111156113d1576113d16135b4565b815260028201546020820152600382015460408201526004820154606082015260059091015460809091015284611408838561356b565b81518110611418576114186135ca565b6020026020010181905250808061142e90613583565b915050611281565b508061144181613583565b915050611275565b505090565b600b5460405163e75600c360e01b81523360048201526001600160a01b039091169063e75600c39060240160206040518083038186803b15801561149157600080fd5b505afa1580156114a5573d6000803e3d6000fd5b505050506040513d601f19601f820116820180604052508101906114c9919061305b565b151560011461151a5760405162461bcd60e51b815260206004820181905260248201527f4f6e6c79204d616b65722063616e2064656c657465204d6174657269616c732e60448201526064016102f5565b61152382612bf3565b15156001146115445760405162461bcd60e51b81526004016102f5906134df565b60005b33600090815260096020526040812090836003811115611569576115696135b4565b600381111561157a5761157a6135b4565b81526020810191909152604001600020548110156117065733600090815260096020526040812084918460038111156115b5576115b56135b4565b60038111156115c6576115c66135b4565b815260200190815260200160002082815481106115e5576115e56135ca565b90600052602060002090600602016000015414156116f4573360009081526009602052604081208184600381111561161f5761161f6135b4565b6003811115611630576116306135b4565b8152602001908152602001600020828154811061164f5761164f6135ca565b600091825260209091208254600690920201908155600180830154818301805460ff90921692909160ff19169083600381111561168e5761168e6135b4565b0217905550600182810154908201805460ff61010093849004169261ff00199091169083600b8111156116c3576116c36135b4565b0217905550600282015481600201556003820154816003015560048201548160040155600582015481600501559050505b806116fe81613583565b915050611547565b5060005b33600090815260086020526040902054811015611880573360009081526006602090815260408083206008909252822080548693919085908110611750576117506135ca565b60009182526020808320909101546001600160a01b03168352820192909252604001902060030154141561186e57336000908152600660209081526040808320600890925282208054839190859081106117ac576117ac6135ca565b60009182526020808320909101546001600160a01b0316835282019290925260400190208154600380830191825560018481015460049094018054939460ff1693909260ff1990911691908490811115611808576118086135b4565b0217905550600182810154908201805460ff61010093849004169261ff00199091169083600b81111561183d5761183d6135b4565b0217905550600282015481600201556003820154816003015560048201548160040155600582015481600501559050505b8061187881613583565b91505061170a565b505050565b600b5460405163e75600c360e01b81523360048201526000916001600160a01b03169063e75600c39060240160206040518083038186803b1580156118c957600080fd5b505afa1580156118dd573d6000803e3d6000fd5b505050506040513d601f19601f82011682018060405250810190611901919061305b565b15156001146119525760405162461bcd60e51b815260206004820152601c60248201527f4f6e6c79204d616b65722063616e20616464204d6174657269616c2e0000000060448201526064016102f5565b600086600b811115611966576119666135b4565b14156119a65760405162461bcd60e51b815260206004820152600f60248201526e10dbdb1bdc881b9bdd081d985b1a59608a1b60448201526064016102f5565b60038760038111156119ba576119ba6135b4565b14156119fd5760405162461bcd60e51b815260206004820152601260248201527113585d195c9a585b081b9bdd081d985b1a5960721b60448201526064016102f5565b611a0688612bf3565b15611a665760405162461bcd60e51b815260206004820152602a60248201527f546865726520697320616c72656164792061206d6174657269616c20776974686044820152692074686973206e616d6560b01b60648201526084016102f5565b60006040518060e001604052808a8152602001896003811115611a8b57611a8b6135b4565b815260200188600b811115611aa257611aa26135b4565b815260200187815260200186815260200185815260200184815250905060096000336001600160a01b03166001600160a01b031681526020019081526020016000206000896003811115611af857611af86135b4565b6003811115611b0957611b096135b4565b81526020808201929092526040016000908120805460018181018355918352918390208451600690930201918255918301518183018054859460ff1990911690836003811115611b5b57611b5b6135b4565b0217905550604082015160018201805461ff00191661010083600b811115611b8557611b856135b4565b0217905550606082015160028201556080820151600382015560a0820151600482015560c0909101516005909101555050336000908152600a6020908152604082208054600181018255908352912001969096555092949350505050565b6060611bee82610ce5565b67ffffffffffffffff811115611c0657611c066135e0565b604051908082528060200260200182016040528015611c3f57816020015b611c2c612d13565b815260200190600190039081611c245790505b5090506000805b600b60009054906101000a90046001600160a01b03166001600160a01b031663f8a98d4c6040518163ffffffff1660e01b815260040160206040518083038186803b158015611c9457600080fd5b505afa158015611ca8573d6000803e3d6000fd5b505050506040513d601f19601f82011682018060405250810190611ccc919061316a565b8110156120ac57600b5460405163093778d960e41b8152600481018390526000916001600160a01b0316906393778d909060240160206040518083038186803b158015611d1857600080fd5b505afa158015611d2c573d6000803e3d6000fd5b505050506040513d601f19601f82011682018060405250810190611d509190612f61565b905060005b6001600160a01b038216600090815260086020526040902054811015612097576001600160a01b03821660009081526006602090815260408083206008909252822080548993919085908110611dad57611dad6135ca565b60009182526020808320909101546001600160a01b031683528201929092526040019020600f01541015612085576040805180820182526001600160a01b03841680825260009081526006602090815283822060088252938220805493949185019391929186908110611e2257611e226135ca565b60009182526020808320909101546001600160a01b03908116845283820194909452604092830190912082516101a0810184528154815260018201549094168483015260028101805484518185028101850186528181529294860193830182828015611edd57602002820191906000526020600020906000905b82829054906101000a900460ff166003811115611ebb57611ebb6135b4565b815260206001928301818104948501949093039092029101808411611e9c5790505b50505050508152602001600382016040518060e0016040529081600082015481526020016001820160009054906101000a900460ff166003811115611f2457611f246135b4565b6003811115611f3557611f356135b4565b81526020016001820160019054906101000a900460ff16600b811115611f5d57611f5d6135b4565b600b811115611f6e57611f6e6135b4565b8152602001600282015481526020016003820154815260200160048201548152602001600582015481525050815260200160098201805480602002602001604051908101604052809291908181526020018280548015611fed57602002820191906000526020600020905b815481526020019060010190808311611fd9575b5050509183525050600a8201546020820152600b8201546040820152600c8201546060820152600d8201546080820152600e82015460ff808216151560a08401526101008083048216151560c08501526201000090920416151560e0830152600f909201549101529052855186908690811061206b5761206b6135ca565b6020026020010181905250838061208190613583565b9450505b8061208f81613583565b915050611d55565b505080806120a490613583565b915050611c46565b5050919050565b600b54604051629c95e160e41b81523360048201526001600160a01b03909116906309c95e109060240160206040518083038186803b1580156120f557600080fd5b505afa158015612109573d6000803e3d6000fd5b505050506040513d601f19601f8201168201806040525081019061212d919061305b565b151560011461217a5760405162461bcd60e51b8152602060048201526019602482015278283630bcb2b9103737ba1034b7103a34329039bcb9ba32b69760391b60448201526064016102f5565b600b5460405163e75600c360e01b81523360048201526001600160a01b039091169063e75600c39060240160206040518083038186803b1580156121bd57600080fd5b505afa1580156121d1573d6000803e3d6000fd5b505050506040513d601f19601f820116820180604052508101906121f5919061305b565b15156001146122465760405162461bcd60e51b815260206004820152601c60248201527f4f6e6c79204d616b65722063616e20616464205072696e746572732e0000000060448201526064016102f5565b6000604051806101a001604052808c81526020018d6001600160a01b031681526020018b815260200160006040518060e0016040529081600082015481526020016001820160009054906101000a900460ff1660038111156122aa576122aa6135b4565b60038111156122bb576122bb6135b4565b81526020016001820160019054906101000a900460ff16600b8111156122e3576122e36135b4565b600b8111156122f4576122f46135b4565b815260200160028201548152602001600382015481526020016004820154815260200160058201548152505081526020018a8152602001898152602001888152602001878152602001868152602001851515815260200184151581526020016001151581526020018381525090508060066000336001600160a01b03166001600160a01b0316815260200190815260200160002060008e6001600160a01b03166001600160a01b031681526020019081526020016000206000820151816000015560208201518160010160006101000a8154816001600160a01b0302191690836001600160a01b0316021790555060408201518160020190805190602001906123fe929190612d3b565b5060608201518051600380840191825560208301516004850180549192909160ff1916906001908490811115612436576124366135b4565b0217905550604082015160018201805461ff00191661010083600b811115612460576124606135b4565b021790555060608201516002820155608080830151600383015560a0830151600483015560c09092015160059091015582015180516124a9916009840191602090910190612deb565b5060a082015181600a015560c082015181600b015560e082015181600c015561010082015181600d015561012082015181600e0160006101000a81548160ff02191690831515021790555061014082015181600e0160016101000a81548160ff02191690831515021790555061016082015181600e0160026101000a81548160ff02191690831515021790555061018082015181600f0155905050600160076000336001600160a01b03166001600160a01b0316815260200190815260200160002060006101000a81548160ff02191690831515021790555060086000336001600160a01b03166001600160a01b031681526020019081526020016000208c9080600181540180825580915050600190039060005260206000200160009091909190916101000a8154816001600160a01b0302191690836001600160a01b031602179055507f68f1f4a765c80cce6152bba70adcfe422531198b0d733f8555bd9b2f1c0feb443360016040516126369291906001600160a01b039290921682521515602082015260400190565b60405180910390a1505050505050505050505050565b6060612657826106ea565b67ffffffffffffffff81111561266f5761266f6135e0565b6040519080825280602002602001820160405280156126a857816020015b612695612e26565b81526020019060019003908161268d5790505b5090506000805b600b60009054906101000a90046001600160a01b03166001600160a01b031663f8a98d4c6040518163ffffffff1660e01b815260040160206040518083038186803b1580156126fd57600080fd5b505afa158015612711573d6000803e3d6000fd5b505050506040513d601f19601f82011682018060405250810190612735919061316a565b8110156120ac5760005b6003811015612be05760005b600b5460405163093778d960e41b8152600481018590526009916000916001600160a01b03909116906393778d909060240160206040518083038186803b15801561279557600080fd5b505afa1580156127a9573d6000803e3d6000fd5b505050506040513d601f19601f820116820180604052508101906127cd9190612f61565b6001600160a01b03166001600160a01b031681526020019081526020016000206000836003811115612801576128016135b4565b6003811115612812576128126135b4565b6003811115612823576128236135b4565b8152602081019190915260400160002054811015612bcd57600b5460405163093778d960e41b81526004810185905287916009916000916001600160a01b0316906393778d909060240160206040518083038186803b15801561288557600080fd5b505afa158015612899573d6000803e3d6000fd5b505050506040513d601f19601f820116820180604052508101906128bd9190612f61565b6001600160a01b03166001600160a01b0316815260200190815260200160002060008460038111156128f1576128f16135b4565b6003811115612902576129026135b4565b6003811115612913576129136135b4565b81526020019081526020016000208281548110612932576129326135ca565b9060005260206000209060060201600501541015612bbb576040805180820191829052600b5463093778d960e41b909252604481018590529081906001600160a01b03166393778d906064830160206040518083038186803b15801561299757600080fd5b505afa1580156129ab573d6000803e3d6000fd5b505050506040513d601f19601f820116820180604052508101906129cf9190612f61565b6001600160a01b039081168252600b5460405163093778d960e41b81526004810188905260209093019260099260009216906393778d909060240160206040518083038186803b158015612a2257600080fd5b505afa158015612a36573d6000803e3d6000fd5b505050506040513d601f19601f82011682018060405250810190612a5a9190612f61565b6001600160a01b03166001600160a01b031681526020019081526020016000206000866003811115612a8e57612a8e6135b4565b6003811115612a9f57612a9f6135b4565b6003811115612ab057612ab06135b4565b81526020019081526020016000208381548110612acf57612acf6135ca565b90600052602060002090600602016040518060e0016040529081600082015481526020016001820160009054906101000a900460ff166003811115612b1657612b166135b4565b6003811115612b2757612b276135b4565b81526020016001820160019054906101000a900460ff16600b811115612b4f57612b4f6135b4565b600b811115612b6057612b606135b4565b8152602001600282015481526020016003820154815260200160048201548152602001600582015481525050815250858581518110612ba157612ba16135ca565b60200260200101819052508380612bb790613583565b9450505b80612bc581613583565b91505061274b565b5080612bd881613583565b91505061273f565b5080612beb81613583565b9150506126af565b600080805b336000908152600a6020526040902054811015612c5b57336000908152600a60205260409020805485919083908110612c3357612c336135ca565b90600052602060002001541415612c4957600191505b80612c5381613583565b915050612bf8565b5092915050565b604080516101a081018252600080825260208201526060918101829052908101612c8a612cd5565b81526020016060815260200160008152602001600081526020016000815260200160008152602001600015158152602001600015158152602001600015158152602001600081525090565b6040805160e0810190915260008082526020820190815260200160008152602001600081526020016000815260200160008152602001600081525090565b604051806040016040528060006001600160a01b03168152602001612d36612c62565b905290565b82805482825590600052602060002090601f01602090048101928215612ddf5791602002820160005b83821115612db057835183826101000a81548160ff02191690836003811115612d8f57612d8f6135b4565b02179055509260200192600101602081600001049283019260010302612d64565b8015612ddd5782816101000a81549060ff0219169055600101602081600001049283019260010302612db0565b505b506106e6929150612e49565b828054828255906000526020600020908101928215612ddf579160200282015b82811115612ddf578251825591602001919060010190612e0b565b604051806040016040528060006001600160a01b03168152602001612d36612cd5565b5b808211156106e65760008155600101612e4a565b8035612e69816135f6565b919050565b600082601f830112612e7f57600080fd5b81356020612e94612e8f83613547565b613516565b80838252828201915082860187848660051b8901011115612eb457600080fd5b60005b85811015612eda57612ec882612f52565b84529284019290840190600101612eb7565b5090979650505050505050565b600082601f830112612ef857600080fd5b81356020612f08612e8f83613547565b80838252828201915082860187848660051b8901011115612f2857600080fd5b60005b85811015612eda57813584529284019290840190600101612f2b565b8035612e698161360e565b803560048110612e6957600080fd5b600060208284031215612f7357600080fd5b8151612f7e816135f6565b9392505050565b60008060008060008060008060008060006101608c8e031215612fa757600080fd5b612fb08c612e5e565b9a5060208c0135995067ffffffffffffffff8060408e01351115612fd357600080fd5b612fe38e60408f01358f01612e6e565b99508060608e01351115612ff657600080fd5b506130078d60608e01358e01612ee7565b975060808c0135965060a08c0135955060c08c0135945060e08c013593506130326101008d01612f47565b92506130416101208d01612f47565b91506101408c013590509295989b509295989b9093969950565b60006020828403121561306d57600080fd5b8151612f7e8161360e565b6000806040838503121561308b57600080fd5b8235915061309b60208401612f52565b90509250929050565b600080600080608085870312156130ba57600080fd5b843593506130ca60208601612f52565b925060408501356130da816135f6565b9396929550929360600135925050565b600080600080600080600060e0888a03121561310557600080fd5b8735965061311560208901612f52565b95506040880135600c811061312957600080fd5b969995985095966060810135965060808101359560a0820135955060c0909101359350915050565b60006020828403121561316357600080fd5b5035919050565b60006020828403121561317c57600080fd5b5051919050565b600081518084526020808501945080840160005b838110156131ba576131aa8783516131f5565b9582019590820190600101613197565b509495945050505050565b600081518084526020808501945080840160005b838110156131ba578151875295820195908201906001016131d9565b60048110613205576132056135b4565b9052565b80518252602081015161321f60208401826131f5565b506040810151600c8110613235576132356135b4565b6040830152606081810151908301526080808201519083015260a0808201519083015260c090810151910152565b600061026082518452602083015161328660208601826001600160a01b03169052565b50604083015181604086015261329e82860182613183565b91505060608301516132b36060860182613209565b506080830151610140858303818701526132cd83836131c5565b925060a08501519150610160828188015260c08601519250610180838189015260e08701516101a08901526101008701516101c0890152610120870151935061331b6101e089018515159052565b918601511515610200880152850151151561022087015290930151610240909401939093525090919050565b6020808252825182820181905260009190848201906040850190845b8181101561339e57835180516001600160a01b0316845285015161338986850182613209565b50928401926101009290920191600101613363565b50909695505050505050565b60006020808301818452808551808352604092508286019150828160051b87010184880160005b8381101561341957888303603f19018552815180516001600160a01b0316845287015187840187905261340687850182613263565b95880195935050908601906001016133d1565b509098975050505050505050565b6020808252825182820181905260009190848201906040850190845b8181101561339e57613456838551613209565b9284019260e09290920191600101613443565b6000602080830181845280855180835260408601915060408160051b870101925083870160005b828110156134be57603f198886030184526134ac858351613263565b94509285019290850190600101613490565b5092979650505050505050565b602081016134d982846131f5565b92915050565b6020808252601a908201527f4e6f206d6174657269616c20776974682074686973206e616d65000000000000604082015260600190565b604051601f8201601f1916810167ffffffffffffffff8111828210171561353f5761353f6135e0565b604052919050565b600067ffffffffffffffff821115613561576135616135e0565b5060051b60200190565b6000821982111561357e5761357e61359e565b500190565b60006000198214156135975761359761359e565b5060010190565b634e487b7160e01b600052601160045260246000fd5b634e487b7160e01b600052602160045260246000fd5b634e487b7160e01b600052603260045260246000fd5b634e487b7160e01b600052604160045260246000fd5b6001600160a01b038116811461360b57600080fd5b50565b801515811461360b57600080fdfea2646970667358221220a78047a04e7d5b208513b52ba1cbc8a5e7f17fef6833beea1f95993ea084ce5664736f6c63430008070033",
  "immutableReferences": {},
  "source": "/*\n * @author Pipitone Antonio \n * @SPDX-License-Identifier: UNLICENSED\n */\npragma solidity >=0.4.22 <0.9.0;\npragma experimental ABIEncoderV2;\n\nimport \"./Structs/OnBoardingStructs.sol\";\n\nabstract contract IUser{\n    mapping (address => bool) public isPlayer;\n    function isMaker(address adr) virtual public view returns(bool);\n    function getNMakers() virtual public view returns(uint256);\n    address[] public makerAddress;\n}\n\ncontract OnBoarding {\n    // Material unused \n    MaterialDetails private NONE = MaterialDetails(\"\",MaterialType.NONE,MaterialColor.NONE,0,0,0,0);\n\n    //Printers\n    mapping (address => mapping(address => Printer)) private printers;\n    mapping (address => bool) private isPrinter;\n    mapping (address => address[]) private makerPrinters;\n\n    //Material\n    mapping (address => mapping (MaterialType => MaterialDetails[]) ) private materials;\n    mapping (address => bytes32[]) private materialsName;\n\n    event newPrinterAddition(address player_address, bool status);\n\n    IUser private Iuser;\n    constructor(address _user){\n        Iuser = IUser(_user);\n    }\n\n\n    //----------- Printers ---------------\n\n    function addPrinter(\n        address printerAddress,\n        bytes32 name, \n        MaterialType[] memory suppertedMaterial,\n        uint256[] memory nozzles,\n        uint256 nozzlesMounted, \n        uint256 printTemperature, \n        uint256 bedTemperature, \n        uint256 volume, \n        bool soluble,\n        bool foodSafety,\n        uint256 timestamp\n    ) public payable{\n        require( Iuser.isPlayer(msg.sender) == true, \"Player not in the system.\");\n        require( Iuser.isMaker(msg.sender) == true, \"Only Maker can add Printers.\");\n\n        Printer memory newPrinter = Printer(\n                                            name,\n                                            printerAddress,\n                                            suppertedMaterial,\n                                            NONE, \n                                            nozzles, \n                                            nozzlesMounted, \n                                            printTemperature, \n                                            bedTemperature, \n                                            volume, \n                                            soluble, \n                                            foodSafety,\n                                            true,\n                                            timestamp\n                                            );\n        printers[msg.sender][printerAddress] = (newPrinter);  \n        isPrinter[msg.sender] = true;\n        makerPrinters[msg.sender].push(printerAddress);\n\n\n        emit newPrinterAddition(msg.sender, true);\n    }\n\n    function getMakerPrinters() \n    public view \n    returns (Printer[] memory mprinters){\n        require( Iuser.isPlayer(msg.sender) == true, \"Player not in the system.\");\n        require( Iuser.isMaker(msg.sender) == true, \"Only Maker can get their Printers.\");\n        mprinters = new Printer[](makerPrinters[msg.sender].length);\n        for (uint i = 0; i < makerPrinters[msg.sender].length; i++) {\n            mprinters[i] = printers[msg.sender][makerPrinters[msg.sender][i]];\n        }\n        return mprinters;\n    }\n\n    function getMakerNPrinters()\n    public view\n    returns(uint256 Nprinters){\n        return makerPrinters[msg.sender].length;\n    }\n\n\n    //---------------- Utils -------------------\n    function getMakerNPrintersBeforeTimestamp(uint256 timestamp)\n    public view\n    returns(uint256 Nprinters){\n        for (uint i = 0; i < Iuser.getNMakers(); i++){\n            address m = Iuser.makerAddress(i);\n            for (uint j = 0; j < makerPrinters[m].length; j++) {\n                if(printers[m][makerPrinters[m][j]].timestampModify<timestamp){\n                    Nprinters++;\n                }\n            }\n        }\n        return Nprinters;\n    }\n\n    function getMakerPrintersBeforeTimestamp(uint256 timestamp)\n    public view\n    returns(MakerPrinters[] memory mprinters){\n        mprinters = new MakerPrinters[](getMakerNPrintersBeforeTimestamp(timestamp));\n        uint256 pos = 0;\n        for (uint i = 0; i < Iuser.getNMakers(); i++){\n            address m = Iuser.makerAddress(i);\n            for (uint j = 0; j < makerPrinters[m].length; j++) {\n                if(printers[m][makerPrinters[m][j]].timestampModify<timestamp){\n                    mprinters[pos] = MakerPrinters(m,printers[m][makerPrinters[m][j]]);\n                    pos++;\n                }\n            }\n        }\n        return mprinters;\n    }\n    //--------------- End Utils ----------------\n\n\n     //----------- End Printers ---------------\n\n\n    //-----------Materials---------------\n\n    function checkMaterial(bytes32 name) \n    internal view returns(bool){\n        bool response = false;\n        for(uint i = 0; i < materialsName[msg.sender].length; i++ ){\n            if (materialsName[msg.sender][i] == name){\n                response = true;\n            }\n        }\n        return response;\n    }\n\n    function addMaterials(bytes32 name, MaterialType mType, MaterialColor mColor, uint256 quantityKG, uint256 printTemp, uint256 bedTemp, uint256 timestamp)\n    public payable\n    returns (MaterialType){\n        require( Iuser.isMaker(msg.sender) == true, \"Only Maker can add Material.\");\n        require(mColor != MaterialColor.NONE, \"Color not valid\");\n        require(mType != MaterialType.NONE, \"Material not valid\");\n\n        require(checkMaterial(name) == false, \"There is already a material with this name\");\n        MaterialDetails memory newMaterial = MaterialDetails(name, mType,mColor, quantityKG, printTemp, bedTemp, timestamp);    \n        materials[msg.sender][mType].push(newMaterial);\n        materialsName[msg.sender].push(name);\n        return mType;\n    }\n\n    function getMaterials()\n    public view\n    returns (MaterialDetails[] memory av_materials){\n        \n        uint256 n_materials = materials[msg.sender][MaterialType.ABS].length+materials[msg.sender][MaterialType.PETG].length+materials[msg.sender][MaterialType.PLA].length;\n        av_materials = new MaterialDetails[](n_materials);\n        for (uint i = 0; i < 3; i++){\n            for(uint j=0; j < materials[msg.sender][MaterialType(i)].length; j++){\n                av_materials[i+j] = materials[msg.sender][MaterialType(i)][j];\n            }\n        }\n        return av_materials;\n    }\n\n    function updateMaterial(bytes32 name, MaterialType mType, MaterialColor mColor, uint256 quantityKG, uint256 printTemp, uint256 bedTemp, uint256 timestamp)\n    public payable{\n        require( Iuser.isMaker(msg.sender) == true, \"Only Maker can update Materials.\");\n        require(checkMaterial(name) == true, \"No material with this name\");\n\n        for(uint j=0; j < materials[msg.sender][mType].length; j++){\n            if (materials[msg.sender][mType][j].name==name){\n                materials[msg.sender][mType][j] = MaterialDetails(name,mType, mColor, quantityKG, printTemp, bedTemp, timestamp); \n            }\n        }\n    }\n\n    function removeMaterial(bytes32 name, MaterialType mType) \n    public payable{\n        require( Iuser.isMaker(msg.sender) == true, \"Only Maker can delete Materials.\");\n        require(checkMaterial(name) == true, \"No material with this name\");\n\n        for(uint j=0; j < materials[msg.sender][mType].length; j++){\n            if (materials[msg.sender][mType][j].name==name){\n                materials[msg.sender][mType][j] = NONE;\n            }\n        }\n        for (uint i = 0; i < makerPrinters[msg.sender].length; i++) {\n            if(printers[msg.sender][makerPrinters[msg.sender][i]].mountedMaterial.name == name){\n                printers[msg.sender][makerPrinters[msg.sender][i]].mountedMaterial = NONE;\n            }\n        }\n    }\n\n    function mountMaterial(bytes32 name, MaterialType mType, address printer, uint256 timestamp)\n    public payable{\n        require(Iuser.isMaker(msg.sender) == true, \"Only Maker can delete Materials.\");\n        require(checkMaterial(name) == true, \"No material with this name\");\n        \n        for(uint j=0; j < materials[msg.sender][mType].length; j++){\n            if (materials[msg.sender][mType][j].name==name){\n                printers[msg.sender][printer].mountedMaterial = materials[msg.sender][mType][j];\n                printers[msg.sender][printer].timestampModify = timestamp;\n            }\n        }\n    }\n\n    //---------------- Utils -------------------\n    function getMaterialsBeforeTimestamp(uint timestamp)\n    public view\n    returns (MakerMaterials[] memory mats){\n        mats = new MakerMaterials[](getNMaterialBeforeTimestamp(timestamp));\n        uint pos = 0;\n        for (uint i = 0; i < Iuser.getNMakers(); i++){\n            for (uint t = 0; t < 3; t++){\n                for(uint j=0; j < materials[Iuser.makerAddress(i)][MaterialType(t)].length; j++){\n                    if  (materials[Iuser.makerAddress(i)][MaterialType(t)][j].timestampCreation<timestamp){\n                        mats[pos]=MakerMaterials(Iuser.makerAddress(i),materials[Iuser.makerAddress(i)][MaterialType(i)][j]);\n                        pos++;\n                    }\n                }\n            }\n        }\n        return mats;\n    }\n\n    function getNMaterialBeforeTimestamp(uint timestamp)\n    public view\n    returns (uint n){\n        for (uint i = 0; i < Iuser.getNMakers(); i++){\n            for (uint t = 0; t < 3; t++){\n                for(uint j=0; j < materials[Iuser.makerAddress(i)][MaterialType(t)].length; j++){\n                    if  (materials[Iuser.makerAddress(i)][MaterialType(t)][j].timestampCreation<timestamp){\n                        n++;\n                    }\n                }\n            }\n        }\n        return n;\n    }\n\n    //--------------- End Utils ----------------\n\n    //-----------End Materials---------------\n\n}",
  "sourcePath": "/Users/antoniopipitone/Desktop/Air Factories 2.0/af2-smart-contract/contracts/1_OnBoarding/OnBoarding.sol",
  "compiler": {
    "name": "solc",
    "version": "0.8.7+commit.e28d00a7.Emscripten.clang"
  },
  "schemaVersion": "3.4.4",
  "updatedAt": "2022-03-27T14:43:13.633Z",
  "networkType": "ethereum",
  "devdoc": {
    "kind": "dev",
    "methods": {},
    "version": 1
  },
  "userdoc": {
    "kind": "user",
    "methods": {},
    "version": 1
  }
}