{
  "contractName": "Order",
  "abi": [
    {
      "inputs": [
        {
          "internalType": "address",
          "name": "maker",
          "type": "address"
        },
        {
          "internalType": "bytes32",
          "name": "orderID",
          "type": "bytes32"
        }
      ],
      "name": "addMakerRequest",
      "outputs": [],
      "stateMutability": "payable",
      "type": "function"
    },
    {
      "inputs": [
        {
          "internalType": "bytes32",
          "name": "orderID",
          "type": "bytes32"
        },
        {
          "internalType": "bytes32",
          "name": "hashDesign",
          "type": "bytes32"
        },
        {
          "internalType": "uint256",
          "name": "pieces",
          "type": "uint256"
        },
        {
          "internalType": "bool",
          "name": "betterQuality",
          "type": "bool"
        },
        {
          "internalType": "uint256",
          "name": "requestedLayerHeight",
          "type": "uint256"
        },
        {
          "internalType": "enum MaterialType",
          "name": "requestedMaterial",
          "type": "uint8"
        },
        {
          "internalType": "enum MaterialColor",
          "name": "requestedColor",
          "type": "uint8"
        }
      ],
      "name": "newOrder",
      "outputs": [],
      "stateMutability": "payable",
      "type": "function"
    },
    {
      "inputs": [],
      "name": "getMyOrders",
      "outputs": [
        {
          "components": [
            {
              "internalType": "bytes32",
              "name": "orderID",
              "type": "bytes32"
            },
            {
              "internalType": "bytes32",
              "name": "hashDesign",
              "type": "bytes32"
            },
            {
              "internalType": "uint256",
              "name": "pieces",
              "type": "uint256"
            },
            {
              "internalType": "bool",
              "name": "betterQuality",
              "type": "bool"
            },
            {
              "internalType": "uint256",
              "name": "requestedLayerHeight",
              "type": "uint256"
            },
            {
              "internalType": "enum MaterialType",
              "name": "requestedMaterial",
              "type": "uint8"
            },
            {
              "internalType": "enum MaterialColor",
              "name": "requestedColor",
              "type": "uint8"
            },
            {
              "internalType": "address[]",
              "name": "makers",
              "type": "address[]"
            },
            {
              "internalType": "uint256[]",
              "name": "distribution",
              "type": "uint256[]"
            },
            {
              "internalType": "bool",
              "name": "complete",
              "type": "bool"
            }
          ],
          "internalType": "struct PlayerOrder[]",
          "name": "myOrders",
          "type": "tuple[]"
        }
      ],
      "stateMutability": "view",
      "type": "function"
    },
    {
      "inputs": [],
      "name": "getMyOrdersCompleted",
      "outputs": [
        {
          "components": [
            {
              "internalType": "bytes32",
              "name": "orderID",
              "type": "bytes32"
            },
            {
              "internalType": "bytes32",
              "name": "hashDesign",
              "type": "bytes32"
            },
            {
              "internalType": "uint256",
              "name": "pieces",
              "type": "uint256"
            },
            {
              "internalType": "bool",
              "name": "betterQuality",
              "type": "bool"
            },
            {
              "internalType": "uint256",
              "name": "requestedLayerHeight",
              "type": "uint256"
            },
            {
              "internalType": "enum MaterialType",
              "name": "requestedMaterial",
              "type": "uint8"
            },
            {
              "internalType": "enum MaterialColor",
              "name": "requestedColor",
              "type": "uint8"
            },
            {
              "internalType": "address[]",
              "name": "makers",
              "type": "address[]"
            },
            {
              "internalType": "uint256[]",
              "name": "distribution",
              "type": "uint256[]"
            },
            {
              "internalType": "bool",
              "name": "complete",
              "type": "bool"
            }
          ],
          "internalType": "struct PlayerOrder[]",
          "name": "myOrders",
          "type": "tuple[]"
        }
      ],
      "stateMutability": "view",
      "type": "function"
    },
    {
      "inputs": [
        {
          "internalType": "bytes32",
          "name": "orderID",
          "type": "bytes32"
        }
      ],
      "name": "getMakerFromOracle",
      "outputs": [
        {
          "internalType": "address[]",
          "name": "pieces",
          "type": "address[]"
        }
      ],
      "stateMutability": "payable",
      "type": "function"
    },
    {
      "inputs": [
        {
          "internalType": "bytes32",
          "name": "orderID",
          "type": "bytes32"
        }
      ],
      "name": "getPiecesDistributionFromOracle",
      "outputs": [
        {
          "internalType": "uint256[]",
          "name": "pieces",
          "type": "uint256[]"
        }
      ],
      "stateMutability": "payable",
      "type": "function"
    }
  ],
  "bytecode": "0x608060405234801561001057600080fd5b50610d43806100206000396000f3fe6080604052600436106100555760003560e01c806318fb3bb91461005a57806327ae10e4146100e3578063bab5933a1461010d578063bcbf22291461012f578063c9d1994a14610144578063cdc2d1ef1461015f575b600080fd5b6100e16100683660046109cc565b6001600160a01b0391821660009081526002602081815260408084208151606081018352958652338684019081529186018581528154600181810184559287529390952095519290930290940190815592519201805491511515600160a01b026001600160a81b03199092169290931691909117179055565b005b6100f76100f1366004610a04565b50606090565b6040516101049190610b34565b60405180910390f35b34801561011957600080fd5b50610122610172565b6040516101049190610b81565b34801561013b57600080fd5b506101226103e9565b6101526100f1366004610a04565b6040516101049190610c88565b6100e161016d366004610a1d565b610698565b3360009081526001602052604090205460609067ffffffffffffffff81111561019d5761019d610cf7565b6040519080825280602002602001820160405280156101d657816020015b6101c36108c9565b8152602001906001900390816101bb5790505b50905060005b336000908152600160205260409020548110156103e557336000908152602081815260408083206001909252822080549192918490811061021f5761021f610ce1565b6000918252602080832090910154835282810193909352604091820190208151610140810183528154815260018201549381019390935260028101549183019190915260038082015460ff9081161515606085015260048301546080850152600583015460a085019291169081111561029a5761029a610ccb565b60038111156102ab576102ab610ccb565b81526020016005820160019054906101000a900460ff16600b8111156102d3576102d3610ccb565b600b8111156102e4576102e4610ccb565b81526020016006820180548060200260200160405190810160405280929190818152602001828054801561034157602002820191906000526020600020905b81546001600160a01b03168152600190910190602001808311610323575b505050505081526020016007820180548060200260200160405190810160405280929190818152602001828054801561039957602002820191906000526020600020905b815481526020019060010190808311610385575b50505091835250506008919091015460ff16151560209091015282518390839081106103c7576103c7610ce1565b602002602001018190525080806103dd90610ca2565b9150506101dc565b5090565b60606103f3610835565b67ffffffffffffffff81111561040b5761040b610cf7565b60405190808252806020026020018201604052801561044457816020015b6104316108c9565b8152602001906001900390816104295790505b50905060005b81518110156103e557336000908152602081815260408083206001909252822080549192918490811061047f5761047f610ce1565b6000918252602080832090910154835282019290925260400190206008015460ff16156106865733600090815260208181526040808320600190925282208054919291849081106104d2576104d2610ce1565b6000918252602080832090910154835282810193909352604091820190208151610140810183528154815260018201549381019390935260028101549183019190915260038082015460ff9081161515606085015260048301546080850152600583015460a085019291169081111561054d5761054d610ccb565b600381111561055e5761055e610ccb565b81526020016005820160019054906101000a900460ff16600b81111561058657610586610ccb565b600b81111561059757610597610ccb565b8152602001600682018054806020026020016040519081016040528092919081815260200182805480156105f457602002820191906000526020600020905b81546001600160a01b031681526001909101906020018083116105d6575b505050505081526020016007820180548060200260200160405190810160405280929190818152602001828054801561064c57602002820191906000526020600020905b815481526020019060010190808311610638575b50505091835250506008919091015460ff161515602090910152825183908390811061067a5761067a610ce1565b60200260200101819052505b8061069081610ca2565b91505061044a565b6000606090506000606090506040518061014001604052808a815260200189815260200188815260200187151581526020018681526020018560038111156106e2576106e2610ccb565b815260200184600b8111156106f9576106f9610ccb565b815260208082018590526040808301859052600060609384018190523381528083528181208e825283528190208451815591840151600183810191909155908401516002830155918301516003808301805492151560ff199384161790556080850151600484015560a08501516005840180549495919490931691849081111561078557610785610ccb565b021790555060c082015160058201805461ff00191661010083600b8111156107af576107af610ccb565b021790555060e082015180516107cf91600684019160209091019061091b565b5061010082015180516107ec91600784019160209091019061097c565b5061012091909101516008909101805460ff1916911515919091179055505033600090815260016020818152604083208054928301815583529091200196909655505050505050565b6000805b336000908152600160205260409020548110156103e557336000908152602081815260408083206001909252822080549192918490811061087c5761087c610ce1565b6000918252602080832090910154835282019290925260400190206008015460ff166108a857816108b5565b816108b281610ca2565b92505b9150806108c181610ca2565b915050610839565b604080516101408101825260008082526020820181905291810182905260608101829052608081018290529060a082019081526020016000815260606020820181905260408201819052600091015290565b828054828255906000526020600020908101928215610970579160200282015b8281111561097057825182546001600160a01b0319166001600160a01b0390911617825560209092019160019091019061093b565b506103e59291506109b7565b828054828255906000526020600020908101928215610970579160200282015b8281111561097057825182559160200191906001019061099c565b5b808211156103e557600081556001016109b8565b600080604083850312156109df57600080fd5b82356001600160a01b03811681146109f657600080fd5b946020939093013593505050565b600060208284031215610a1657600080fd5b5035919050565b600080600080600080600060e0888a031215610a3857600080fd5b87359650602088013595506040880135945060608801358015158114610a5d57600080fd5b93506080880135925060a088013560048110610a7857600080fd5b915060c0880135600c8110610a8c57600080fd5b8091505092959891949750929550565b600081518084526020808501945080840160005b83811015610ad55781516001600160a01b031687529582019590820190600101610ab0565b509495945050505050565b600081518084526020808501945080840160005b83811015610ad557815187529582019590820190600101610af4565b600c8110610b2057610b20610ccb565b9052565b60048110610b2057610b20610ccb565b6020808252825182820181905260009190848201906040850190845b81811015610b755783516001600160a01b031683529284019291840191600101610b50565b50909695505050505050565b60006020808301818452808551808352604092508286019150828160051b87010184880160005b83811015610c7a57603f1989840301855281516101408151855288820151898601528782015188860152606080830151610be58288018215159052565b50506080828101519086015260a080830151610c0382880182610b24565b505060c080830151610c1782880182610b10565b505060e0808301518282880152610c3083880182610a9c565b925050506101008083015186830382880152610c4c8382610ae0565b92505050610120808301519250610c668187018415159052565b509588019593505090860190600101610ba8565b509098975050505050505050565b602081526000610c9b6020830184610ae0565b9392505050565b6000600019821415610cc457634e487b7160e01b600052601160045260246000fd5b5060010190565b634e487b7160e01b600052602160045260246000fd5b634e487b7160e01b600052603260045260246000fd5b634e487b7160e01b600052604160045260246000fdfea26469706673582212208c4b8f6eb4a0fda75c5b1504608769b749c94d1a11a31d1991d3e61556ba562e64736f6c63430008070033",
  "immutableReferences": {},
  "source": "/*\n * @author Pipitone Antonio \n * @SPDX-License-Identifier: UNLICENSED\n */\npragma solidity >=0.4.22 <0.9.0;\npragma experimental ABIEncoderV2;\n\nimport \"./Structs/OrderStructs.sol\";\n\ncontract Order {\n    mapping(address => mapping(bytes32 => PlayerOrder)) orders;\n    mapping(address => bytes32[]) myOrderIds;\n    mapping(address => OrderRequest[]) myRequest;\n\n    function addMakerRequest(address maker, bytes32 orderID)\n    public payable{\n        myRequest[maker].push(OrderRequest(orderID,msg.sender, false));\n    }\n\n    function newOrder(bytes32 orderID, bytes32 hashDesign, uint256 pieces, bool betterQuality, uint256 requestedLayerHeight, MaterialType requestedMaterial, MaterialColor requestedColor)\n    public payable{\n        address[] memory makers = getMakerFromOracle(orderID);\n        uint256[] memory pieceDistribution =  getPiecesDistributionFromOracle(orderID);\n        orders[msg.sender][orderID]= PlayerOrder(orderID, hashDesign, pieces, betterQuality, requestedLayerHeight, requestedMaterial, requestedColor, makers, pieceDistribution, false);\n        myOrderIds[msg.sender].push(orderID);\n    }\n\n    function getMyOrders()\n    public view\n    returns (PlayerOrder[] memory myOrders){\n        myOrders = new PlayerOrder[](myOrderIds[msg.sender].length);\n\n        for(uint256 i = 0; i<myOrderIds[msg.sender].length; i++){\n            myOrders[i] = orders[msg.sender][myOrderIds[msg.sender][i]];\n        }\n        return myOrders;\n    }\n\n    function getMyOrdersCompleted()\n    public view\n    returns (PlayerOrder[] memory myOrders){\n        myOrders = new PlayerOrder[](getMyOrdersCompletedN());\n        for(uint256 i = 0; i<myOrders.length; i++){\n            if (orders[msg.sender][myOrderIds[msg.sender][i]].complete){\n                myOrders[i] = orders[msg.sender][myOrderIds[msg.sender][i]];\n            }\n        }\n        return myOrders;\n    }\n\n    function getMyOrdersCompletedN()\n    private view\n    returns (uint256 n){\n        for(uint256 i = 0; i<myOrderIds[msg.sender].length; i++){\n            n = orders[msg.sender][myOrderIds[msg.sender][i]].complete ? n++ : n;\n        }\n        return n;\n    }\n\n\n    function getMakerFromOracle(bytes32 orderID)\n    public payable\n    returns(address[] memory pieces){\n\n    }\n\n    function getPiecesDistributionFromOracle(bytes32 orderID)\n    public payable\n    returns(uint256[] memory pieces){\n\n    }\n}",
  "sourcePath": "/Users/antoniopipitone/Desktop/Air Factories 2.0/af2-smart-contract/contracts/5_Order/Order.sol",
  "compiler": {
    "name": "solc",
    "version": "0.8.7+commit.e28d00a7.Emscripten.clang"
  },
  "schemaVersion": "3.4.4",
  "updatedAt": "2022-03-15T22:30:49.431Z",
  "devdoc": {
    "kind": "dev",
    "methods": {},
    "version": 1
  },
  "userdoc": {
    "kind": "user",
    "methods": {},
    "version": 1
  }
}