{
  "contractName": "User",
  "abi": [
    {
      "anonymous": false,
      "inputs": [
        {
          "indexed": false,
          "internalType": "address",
          "name": "player_address",
          "type": "address"
        }
      ],
      "name": "newPlayerAddition",
      "type": "event"
    },
    {
      "inputs": [
        {
          "internalType": "address",
          "name": "",
          "type": "address"
        }
      ],
      "name": "isPlayer",
      "outputs": [
        {
          "internalType": "bool",
          "name": "",
          "type": "bool"
        }
      ],
      "stateMutability": "view",
      "type": "function",
      "constant": true
    },
    {
      "inputs": [
        {
          "internalType": "uint256",
          "name": "",
          "type": "uint256"
        }
      ],
      "name": "makerAddress",
      "outputs": [
        {
          "internalType": "address",
          "name": "",
          "type": "address"
        }
      ],
      "stateMutability": "view",
      "type": "function",
      "constant": true
    },
    {
      "inputs": [
        {
          "internalType": "bytes32",
          "name": "username",
          "type": "bytes32"
        },
        {
          "components": [
            {
              "internalType": "int256",
              "name": "longitude",
              "type": "int256"
            },
            {
              "internalType": "int256",
              "name": "latitude",
              "type": "int256"
            }
          ],
          "internalType": "struct Position",
          "name": "position",
          "type": "tuple"
        },
        {
          "internalType": "uint256",
          "name": "timestamp",
          "type": "uint256"
        }
      ],
      "name": "addCaller",
      "outputs": [],
      "stateMutability": "payable",
      "type": "function",
      "payable": true
    },
    {
      "inputs": [
        {
          "internalType": "bytes32",
          "name": "username",
          "type": "bytes32"
        },
        {
          "components": [
            {
              "internalType": "int256",
              "name": "longitude",
              "type": "int256"
            },
            {
              "internalType": "int256",
              "name": "latitude",
              "type": "int256"
            }
          ],
          "internalType": "struct Position",
          "name": "position",
          "type": "tuple"
        },
        {
          "internalType": "uint256",
          "name": "from",
          "type": "uint256"
        },
        {
          "internalType": "uint256",
          "name": "to",
          "type": "uint256"
        },
        {
          "internalType": "uint256",
          "name": "timestamp",
          "type": "uint256"
        }
      ],
      "name": "addMaker",
      "outputs": [],
      "stateMutability": "payable",
      "type": "function",
      "payable": true
    },
    {
      "inputs": [
        {
          "internalType": "bool",
          "name": "maker",
          "type": "bool"
        },
        {
          "components": [
            {
              "internalType": "int256",
              "name": "longitude",
              "type": "int256"
            },
            {
              "internalType": "int256",
              "name": "latitude",
              "type": "int256"
            }
          ],
          "internalType": "struct Position",
          "name": "position",
          "type": "tuple"
        },
        {
          "internalType": "bytes32",
          "name": "username",
          "type": "bytes32"
        },
        {
          "internalType": "uint256",
          "name": "from",
          "type": "uint256"
        },
        {
          "internalType": "uint256",
          "name": "to",
          "type": "uint256"
        },
        {
          "internalType": "uint256",
          "name": "timestamp",
          "type": "uint256"
        }
      ],
      "name": "addPlayer",
      "outputs": [],
      "stateMutability": "payable",
      "type": "function",
      "payable": true
    },
    {
      "inputs": [],
      "name": "getPlayerInfo",
      "outputs": [
        {
          "components": [
            {
              "internalType": "enum PlayerType",
              "name": "playerType",
              "type": "uint8"
            },
            {
              "internalType": "bytes32",
              "name": "username",
              "type": "bytes32"
            },
            {
              "components": [
                {
                  "internalType": "int256",
                  "name": "longitude",
                  "type": "int256"
                },
                {
                  "internalType": "int256",
                  "name": "latitude",
                  "type": "int256"
                }
              ],
              "internalType": "struct Position",
              "name": "position",
              "type": "tuple"
            },
            {
              "internalType": "uint256",
              "name": "reputation",
              "type": "uint256"
            },
            {
              "internalType": "uint256",
              "name": "weight",
              "type": "uint256"
            },
            {
              "internalType": "uint256",
              "name": "timestampCreation",
              "type": "uint256"
            }
          ],
          "internalType": "struct AirPlayer",
          "name": "airPlayer",
          "type": "tuple"
        },
        {
          "components": [
            {
              "internalType": "uint256",
              "name": "avaiabilityRangeFrom",
              "type": "uint256"
            },
            {
              "internalType": "uint256",
              "name": "avaiabilityRangeTo",
              "type": "uint256"
            },
            {
              "internalType": "bool",
              "name": "avaiableToPrint",
              "type": "bool"
            }
          ],
          "internalType": "struct AirMaker",
          "name": "airMaker",
          "type": "tuple"
        }
      ],
      "stateMutability": "view",
      "type": "function",
      "constant": true
    },
    {
      "inputs": [
        {
          "internalType": "address",
          "name": "player",
          "type": "address"
        }
      ],
      "name": "getPlayerInfoWithAddress",
      "outputs": [
        {
          "components": [
            {
              "internalType": "enum PlayerType",
              "name": "playerType",
              "type": "uint8"
            },
            {
              "internalType": "bytes32",
              "name": "username",
              "type": "bytes32"
            },
            {
              "components": [
                {
                  "internalType": "int256",
                  "name": "longitude",
                  "type": "int256"
                },
                {
                  "internalType": "int256",
                  "name": "latitude",
                  "type": "int256"
                }
              ],
              "internalType": "struct Position",
              "name": "position",
              "type": "tuple"
            },
            {
              "internalType": "uint256",
              "name": "reputation",
              "type": "uint256"
            },
            {
              "internalType": "uint256",
              "name": "weight",
              "type": "uint256"
            },
            {
              "internalType": "uint256",
              "name": "timestampCreation",
              "type": "uint256"
            }
          ],
          "internalType": "struct AirPlayer",
          "name": "airPlayer",
          "type": "tuple"
        }
      ],
      "stateMutability": "view",
      "type": "function",
      "constant": true
    },
    {
      "inputs": [
        {
          "internalType": "uint256",
          "name": "timestamp_request",
          "type": "uint256"
        }
      ],
      "name": "getMakersInfo",
      "outputs": [
        {
          "internalType": "address[]",
          "name": "addr",
          "type": "address[]"
        },
        {
          "components": [
            {
              "internalType": "enum PlayerType",
              "name": "playerType",
              "type": "uint8"
            },
            {
              "internalType": "bytes32",
              "name": "username",
              "type": "bytes32"
            },
            {
              "components": [
                {
                  "internalType": "int256",
                  "name": "longitude",
                  "type": "int256"
                },
                {
                  "internalType": "int256",
                  "name": "latitude",
                  "type": "int256"
                }
              ],
              "internalType": "struct Position",
              "name": "position",
              "type": "tuple"
            },
            {
              "internalType": "uint256",
              "name": "reputation",
              "type": "uint256"
            },
            {
              "internalType": "uint256",
              "name": "weight",
              "type": "uint256"
            },
            {
              "internalType": "uint256",
              "name": "timestampCreation",
              "type": "uint256"
            }
          ],
          "internalType": "struct AirPlayer[]",
          "name": "pl",
          "type": "tuple[]"
        },
        {
          "components": [
            {
              "internalType": "uint256",
              "name": "avaiabilityRangeFrom",
              "type": "uint256"
            },
            {
              "internalType": "uint256",
              "name": "avaiabilityRangeTo",
              "type": "uint256"
            },
            {
              "internalType": "bool",
              "name": "avaiableToPrint",
              "type": "bool"
            }
          ],
          "internalType": "struct AirMaker[]",
          "name": "mk",
          "type": "tuple[]"
        }
      ],
      "stateMutability": "view",
      "type": "function",
      "constant": true
    },
    {
      "inputs": [],
      "name": "getPlayers",
      "outputs": [
        {
          "components": [
            {
              "internalType": "enum PlayerType",
              "name": "playerType",
              "type": "uint8"
            },
            {
              "internalType": "bytes32",
              "name": "username",
              "type": "bytes32"
            },
            {
              "components": [
                {
                  "internalType": "int256",
                  "name": "longitude",
                  "type": "int256"
                },
                {
                  "internalType": "int256",
                  "name": "latitude",
                  "type": "int256"
                }
              ],
              "internalType": "struct Position",
              "name": "position",
              "type": "tuple"
            },
            {
              "internalType": "uint256",
              "name": "reputation",
              "type": "uint256"
            },
            {
              "internalType": "uint256",
              "name": "weight",
              "type": "uint256"
            },
            {
              "internalType": "uint256",
              "name": "timestampCreation",
              "type": "uint256"
            }
          ],
          "internalType": "struct AirPlayer[]",
          "name": "pl",
          "type": "tuple[]"
        }
      ],
      "stateMutability": "view",
      "type": "function",
      "constant": true
    },
    {
      "inputs": [],
      "name": "getNPlayers",
      "outputs": [
        {
          "internalType": "uint256",
          "name": "",
          "type": "uint256"
        }
      ],
      "stateMutability": "view",
      "type": "function",
      "constant": true
    },
    {
      "inputs": [],
      "name": "getNMakers",
      "outputs": [
        {
          "internalType": "uint256",
          "name": "",
          "type": "uint256"
        }
      ],
      "stateMutability": "view",
      "type": "function",
      "constant": true
    },
    {
      "inputs": [],
      "name": "getNCallers",
      "outputs": [
        {
          "internalType": "uint256",
          "name": "",
          "type": "uint256"
        }
      ],
      "stateMutability": "view",
      "type": "function",
      "constant": true
    },
    {
      "inputs": [
        {
          "internalType": "address",
          "name": "adr",
          "type": "address"
        }
      ],
      "name": "isMaker",
      "outputs": [
        {
          "internalType": "bool",
          "name": "",
          "type": "bool"
        }
      ],
      "stateMutability": "view",
      "type": "function",
      "constant": true
    }
  ],
  "bytecode": "0x608060405234801561001057600080fd5b50611134806100206000396000f3fe6080604052600436106100c25760003560e01c8063acb0acad1161007f578063d1df81df11610059578063d1df81df1461021c578063e75600c31461023f578063eb1ed9b31461025f578063f8a98d4c1461027457600080fd5b8063acb0acad146101ad578063b2961aa0146101c0578063ca04dbb4146101ed57600080fd5b806309c95e10146100c75780638a05b3291461010c5780638b5b9ccc1461012b57806393778d901461014d578063a71240d314610185578063a9613ba31461019a575b600080fd5b3480156100d357600080fd5b506100f76100e2366004610d50565b60046020526000908152604090205460ff1681565b60405190151581526020015b60405180910390f35b34801561011857600080fd5b506001545b604051908152602001610103565b34801561013757600080fd5b50610140610289565b6040516101039190610fd7565b34801561015957600080fd5b5061016d610168366004610e5a565b6103e7565b6040516001600160a01b039091168152602001610103565b610198610193366004610d80565b610411565b005b6101986101a8366004610ddd565b610576565b6101986101bb366004610e13565b6105c4565b3480156101cc57600080fd5b506101e06101db366004610d50565b61060a565b604051610103919061102d565b3480156101f957600080fd5b5061020d610208366004610e5a565b61071c565b60405161010393929190610f1f565b34801561022857600080fd5b50610231610a6e565b604051610103929190611041565b34801561024b57600080fd5b506100f761025a366004610d50565b610bd1565b34801561026b57600080fd5b5061011d610c08565b34801561028057600080fd5b5060035461011d565b60015460609067ffffffffffffffff8111156102a7576102a76110e8565b6040519080825280602002602001820160405280156102e057816020015b6102cd610c9e565b8152602001906001900390816102c55790505b50905060005b6001548110156103e35760008060018381548110610306576103066110d2565b60009182526020808320909101546001600160a01b031683528201929092526040908101909120815160c081019092528054829060ff16600181111561034e5761034e6110bc565b600181111561035f5761035f6110bc565b8152602001600182015481526020016002820160405180604001604052908160008201548152602001600182015481525050815260200160048201548152602001600582015481526020016006820154815250508282815181106103c5576103c56110d2565b602002602001018190525080806103db9061108b565b9150506102e6565b5090565b600381815481106103f757600080fd5b6000918252602090912001546001600160a01b0316905081565b6001805480820182557fb10e2d527612073b26eecdfd717e6a320cf44b4afac2b0732d9fcbe2b7fa0cf60180546001600160a01b031916339081179091556000908152600460209081526040808320805460ff1990811686179091559183905290912080549091168217905586151514156104ff5733600081815260208181526040808320805460ff199081169091556002928390529083209182018054909116905585815560019081018590556003805491820181559091527fc2575a0e9e593c00f959f8c92f12db2869c3395a3b0502d05e2516446f71f85b0180546001600160a01b03191690911790555b33600081815260208181526040918290206001808201899055898301516003808401919091558a51600284015560068301879055600483015560059091015590519182527f1c5d06a0672792ca8a9a7e2ec6e3d76dbfee51e2a23c2340bf70f81a29c9dd6d910160405180910390a1505050505050565b3360009081526004602052604090205460ff16156105af5760405162461bcd60e51b81526004016105a690610fea565b60405180910390fd5b6105bf6000838560008086610411565b505050565b3360009081526004602052604090205460ff16156105f45760405162461bcd60e51b81526004016105a690610fea565b61060360018587868686610411565b5050505050565b610612610c9e565b6001600160a01b03821660009081526004602052604090205460ff16151560011461067b5760405162461bcd60e51b8152602060048201526019602482015278283630bcb2b9103737ba1034b7103a34329039bcb9ba32b69760391b60448201526064016105a6565b6001600160a01b03821660009081526020819052604090819020815160c081019092528054829060ff1660018111156106b6576106b66110bc565b60018111156106c7576106c76110bc565b8152600182015460208083019190915260408051808201825260028501548152600385015492810192909252820152600482015460608201526005820154608082015260069091015460a09091015292915050565b6060806060600061072c85610c25565b90508067ffffffffffffffff811115610747576107476110e8565b60405190808252806020026020018201604052801561078057816020015b61076d610c9e565b8152602001906001900390816107655790505b5092508067ffffffffffffffff81111561079c5761079c6110e8565b6040519080825280602002602001820160405280156107f357816020015b6107e0604051806060016040528060008152602001600081526020016000151581525090565b8152602001906001900390816107ba5790505b5091508067ffffffffffffffff81111561080f5761080f6110e8565b604051908082528060200260200182016040528015610838578160200160208202803683370190505b50935060005b600354811015610a6557856000806003848154811061085f5761085f6110d2565b60009182526020808320909101546001600160a01b031683528201929092526040019020600601541015610a5357600381815481106108a0576108a06110d2565b9060005260206000200160009054906101000a90046001600160a01b03168582815181106108d0576108d06110d2565b60200260200101906001600160a01b031690816001600160a01b03168152505060008060038381548110610906576109066110d2565b60009182526020808320909101546001600160a01b031683528201929092526040908101909120815160c081019092528054829060ff16600181111561094e5761094e6110bc565b600181111561095f5761095f6110bc565b8152602001600182015481526020016002820160405180604001604052908160008201548152602001600182015481525050815260200160048201548152602001600582015481526020016006820154815250508482815181106109c5576109c56110d2565b602002602001018190525060026000600383815481106109e7576109e76110d2565b60009182526020808320909101546001600160a01b0316835282810193909352604091820190208151606081018352815481526001820154938101939093526002015460ff161515908201528351849083908110610a4757610a476110d2565b60200260200101819052505b80610a5d8161108b565b91505061083e565b50509193909250565b610a76610c9e565b610a9c604051806060016040528060008152602001600081526020016000151581525090565b3360009081526004602052604090205460ff161515600114610afc5760405162461bcd60e51b8152602060048201526019602482015278283630bcb2b9103737ba1034b7103a34329039bcb9ba32b69760391b60448201526064016105a6565b33600090815260208181526040808320600290925291829020825160c081019093528154919290918390829060ff166001811115610b3c57610b3c6110bc565b6001811115610b4d57610b4d6110bc565b815260018281015460208084019190915260408051808201825260028087015482526003870154828501528286019190915260048601546060808701919091526005870154608087015260069096015460a0909501949094528051948501815286548552918601549084015293015460ff1615159281019290925294909350915050565b6000806001600160a01b03831660009081526020819052604090205460ff166001811115610c0157610c016110bc565b1492915050565b6000610c1360035490565b600154610c209190611074565b905090565b6000805b600354811015610c98578260008060038481548110610c4a57610c4a6110d2565b60009182526020808320909101546001600160a01b031683528201929092526040019020600601541015610c865781610c828161108b565b9250505b80610c908161108b565b915050610c29565b50919050565b6040805160c08101909152806000815260200160008019168152602001610cd8604051806040016040528060008152602001600081525090565b81526020016000815260200160008152602001600081525090565b600060408284031215610d0557600080fd5b6040516040810181811067ffffffffffffffff82111715610d3657634e487b7160e01b600052604160045260246000fd5b604052823581526020928301359281019290925250919050565b600060208284031215610d6257600080fd5b81356001600160a01b0381168114610d7957600080fd5b9392505050565b60008060008060008060e08789031215610d9957600080fd5b86358015158114610da957600080fd5b9550610db88860208901610cf3565b959895975050505060608401359360808101359360a0820135935060c0909101359150565b600080600060808486031215610df257600080fd5b83359250610e038560208601610cf3565b9150606084013590509250925092565b600080600080600060c08688031215610e2b57600080fd5b85359450610e3c8760208801610cf3565b949794965050505060608301359260808101359260a0909101359150565b600060208284031215610e6c57600080fd5b5035919050565b600081518084526020808501945080840160005b83811015610ead57610e9a878351610eb8565b60e0969096019590820190600101610e87565b509495945050505050565b805160028110610ed857634e487b7160e01b600052602160045260246000fd5b8083525060208101516020830152604081015180516040840152602081015160608401525060608101516080830152608081015160a083015260a081015160c08301525050565b60608082528451828201819052600091906020906080850190828901855b82811015610f625781516001600160a01b031684529284019290840190600101610f3d565b50505084810382860152610f768188610e73565b8581036040870152865180825283880192509083019060005b81811015610fc857610fb883855180518252602080820151908301526040908101511515910152565b9284019291850191600101610f8f565b50909998505050505050505050565b602081526000610d796020830184610e73565b60208082526023908201527f506c6179657220616c726561647920616464656420746f20746865207379737460408201526232b69760e91b606082015260800190565b60e0810161103b8284610eb8565b92915050565b61014081016110508285610eb8565b825160e0830152602083015161010083015260408301511515610120830152610d79565b600082821015611086576110866110a6565b500390565b600060001982141561109f5761109f6110a6565b5060010190565b634e487b7160e01b600052601160045260246000fd5b634e487b7160e01b600052602160045260246000fd5b634e487b7160e01b600052603260045260246000fd5b634e487b7160e01b600052604160045260246000fdfea26469706673582212205296fd8bb7f25535b1ea23eafa1a165d5b7fffa48f940a349a50b237ad5fddb164736f6c63430008070033",
  "immutableReferences": {},
  "source": "/*\n * @author Pipitone Antonio \n * @SPDX-License-Identifier: UNLICENSED\n */\npragma solidity >=0.4.22 <0.9.0;\npragma experimental ABIEncoderV2;\n\nimport \"./Structs/UserStructs.sol\";\n\ncontract User {\n    //Player - Common Details Maker-Caller\n    mapping (address => AirPlayer) private airPlayers;  \n    address[] private playerAddresses;\n    //Details Maker\n    mapping (address =>AirMaker) private airMakers;\n    address[] public makerAddress;\n    //To check if a user is registered; \n    mapping (address => bool) public isPlayer;\n\n\n    //Events-----------------------------\n    event newPlayerAddition(address player_address);\n    //-----------------------------------\n\n\n    //Functions--------------------------\n    //Functions Players\n    function addCaller(bytes32 username, Position memory position, uint256 timestamp/*, bytes32 _hashMsg, bytes memory _signature*/)\n    public payable{\n        //Check for existing player\n        require( isPlayer [msg.sender] == false, \"Player already added to the system.\" );\n        //checkIdentity(_hashMsg, _signature);\n        addPlayer(false, position, username, 0, 0, timestamp);\n\n    }\n\n    function addMaker(bytes32 username, Position memory position, uint256 from, uint256 to, uint256 timestamp/*, bytes32 _hashMsg, bytes memory _signature*/)\n    public payable{\n        //Check for existing player\n        require( isPlayer [msg.sender] == false, \"Player already added to the system.\" );\n        //checkIdentity(_hashMsg, _signature);\n        addPlayer(true, position, username, from, to, timestamp);\n    }\n\n    function addPlayer(bool maker, Position memory position, bytes32 username, uint256 from, uint256 to, uint256 timestamp) \n    public payable{\n        //Push Player address\n        playerAddresses.push(msg.sender);\n\n        //Set player to 1 to denote that player is added to the system\n        isPlayer[msg.sender] = true;\n\n        airPlayers[msg.sender].playerType = PlayerType.CALLER;\n        \n        if (maker==true){\n            airPlayers[msg.sender].playerType = PlayerType.MAKER;\n            airMakers[msg.sender].avaiableToPrint = false;\n            airMakers[msg.sender].avaiabilityRangeFrom = from;\n            airMakers[msg.sender].avaiabilityRangeTo = to;\n            makerAddress.push(msg.sender);\n        }\n\n        airPlayers[msg.sender].username = username;\n        airPlayers[msg.sender].position.latitude = position.latitude;\n        airPlayers[msg.sender].position.longitude = position.longitude;\n        airPlayers[msg.sender].timestampCreation = timestamp;\n\n\n        //Default value\n        airPlayers[msg.sender].reputation = 3;  \n        airPlayers[msg.sender].weight = 1;\n        \n        //Event for successful registration\n        emit newPlayerAddition(msg.sender);\n    }\n\n    function getPlayerInfo()\n    public view \n    returns (AirPlayer memory airPlayer, AirMaker memory airMaker){\n        require( isPlayer [msg.sender] == true, \"Player not in the system.\" );\n\n        return (airPlayers[msg.sender], airMakers[msg.sender]);\n    }\n\n    function getPlayerInfoWithAddress(address player)\n    public view \n    returns (AirPlayer memory airPlayer){\n        require( isPlayer [player] == true, \"Player not in the system.\" );\n        return airPlayers[player];\n    }\n\n    //Scheduling utilities function\n    function getNMakersBeforeTimestamp(uint256 timestamp_request)\n    private view returns(uint256 n){\n        for (uint i = 0; i < makerAddress.length; i++) {\n            if(airPlayers[makerAddress[i]].timestampCreation<timestamp_request){\n                n++;\n            }\n        }\n        return n;\n    }\n\n    function getMakersInfo(uint256 timestamp_request) \n    public view \n    returns (address[] memory addr, AirPlayer[] memory pl, AirMaker[] memory mk){\n        uint256 nMakers = getNMakersBeforeTimestamp(timestamp_request);\n        pl = new AirPlayer[](nMakers);\n        mk = new AirMaker[](nMakers);\n        addr = new address[](nMakers);\n        for (uint i = 0; i < makerAddress.length; i++) {\n            if(airPlayers[makerAddress[i]].timestampCreation<timestamp_request){\n                addr[i] = makerAddress[i];\n                pl[i] = airPlayers[makerAddress[i]];\n                mk[i] = airMakers[makerAddress[i]];\n            }\n        }\n        return (addr,pl,mk);\n    }\n\n    //--------\n\n    \n    //TEST Function\n    function getPlayers() \n    public view \n    returns (AirPlayer[] memory pl){\n        pl = new AirPlayer[](playerAddresses.length);\n        for (uint i = 0; i < playerAddresses.length; i++) {\n            pl[i] = airPlayers[playerAddresses[i]];\n        }\n        return pl;\n    }\n\n    //TEST Function \n    function getNPlayers()\n    public view returns(uint256){\n        return playerAddresses.length;\n    }\n\n    //TEST Function\n    function getNMakers()\n    public view returns(uint256){\n        return makerAddress.length;\n    }\n\n    //TEST Function\n    function getNCallers()\n    public view returns(uint256){\n        return getNPlayers() - getNMakers();\n    }\n\n    function isMaker(address adr) \n    public view returns(bool){\n        return airPlayers[adr].playerType == PlayerType.MAKER;\n    } \n\n    function checkIdentity(bytes32 _hashMsg, bytes memory _signature) \n    private view{\n        //Check for identity of the user registering\n        (uint8 _v, bytes32 _r, bytes32 _s) = splitSignature(_signature);\n        bytes32 prefixedHash = keccak256(abi.encodePacked(\"\\x19Ethereum Signed Message:\\n32\", _hashMsg));\n        require(ecrecover(prefixedHash, _v, _r, _s) == msg.sender, \"The registration identity verification failed.\"); \n    }\n\n    function splitSignature(bytes memory sig)\n    private pure\n    returns (uint8, bytes32, bytes32){\n        require(sig.length == 65);\n\n        bytes32 r;\n        bytes32 s;\n        uint8 v;\n\n        assembly {\n            // first 32 bytes, after the length prefix\n            r := mload(add(sig, 32))\n            // second 32 bytes\n            s := mload(add(sig, 64))\n            // final byte (first byte of the next 32 bytes)\n            v := byte(0, mload(add(sig, 96)))\n        }\n        \n        if (v < 27) {\n            v += 27;\n        }\n\n        return (v, r, s);\n    }\n}\n",
  "sourcePath": "/Users/antoniopipitone/Desktop/Air Factories 2.0/af2-smart-contract/contracts/1_OnBoarding/User.sol",
  "compiler": {
    "name": "solc",
    "version": "0.8.7+commit.e28d00a7.Emscripten.clang"
  },
  "schemaVersion": "3.4.4",
  "updatedAt": "2022-03-27T14:43:43.207Z",
  "networkType": "ethereum",
  "devdoc": {
    "kind": "dev",
    "methods": {},
    "version": 1
  },
  "userdoc": {
    "kind": "user",
    "methods": {},
    "version": 1
  }
}