{
  "contractName": "User",
  "abi": [
    {
      "anonymous": false,
      "inputs": [
        {
          "indexed": false,
          "internalType": "address",
          "name": "player_address",
          "type": "address"
        }
      ],
      "name": "newPlayerAddition",
      "type": "event"
    },
    {
      "inputs": [
        {
          "internalType": "address",
          "name": "",
          "type": "address"
        }
      ],
      "name": "isPlayer",
      "outputs": [
        {
          "internalType": "bool",
          "name": "",
          "type": "bool"
        }
      ],
      "stateMutability": "view",
      "type": "function",
      "constant": true
    },
    {
      "inputs": [
        {
          "internalType": "uint256",
          "name": "",
          "type": "uint256"
        }
      ],
      "name": "makerAddress",
      "outputs": [
        {
          "internalType": "address",
          "name": "",
          "type": "address"
        }
      ],
      "stateMutability": "view",
      "type": "function",
      "constant": true
    },
    {
      "inputs": [
        {
          "internalType": "bytes32",
          "name": "username",
          "type": "bytes32"
        },
        {
          "components": [
            {
              "internalType": "int256",
              "name": "longitude",
              "type": "int256"
            },
            {
              "internalType": "int256",
              "name": "latitude",
              "type": "int256"
            }
          ],
          "internalType": "struct Position",
          "name": "position",
          "type": "tuple"
        },
        {
          "internalType": "uint256",
          "name": "timestamp",
          "type": "uint256"
        }
      ],
      "name": "addCaller",
      "outputs": [],
      "stateMutability": "payable",
      "type": "function",
      "payable": true
    },
    {
      "inputs": [
        {
          "internalType": "bytes32",
          "name": "username",
          "type": "bytes32"
        },
        {
          "components": [
            {
              "internalType": "int256",
              "name": "longitude",
              "type": "int256"
            },
            {
              "internalType": "int256",
              "name": "latitude",
              "type": "int256"
            }
          ],
          "internalType": "struct Position",
          "name": "position",
          "type": "tuple"
        },
        {
          "internalType": "uint256",
          "name": "from",
          "type": "uint256"
        },
        {
          "internalType": "uint256",
          "name": "to",
          "type": "uint256"
        },
        {
          "internalType": "uint256",
          "name": "timestamp",
          "type": "uint256"
        }
      ],
      "name": "addMaker",
      "outputs": [],
      "stateMutability": "payable",
      "type": "function",
      "payable": true
    },
    {
      "inputs": [
        {
          "internalType": "bool",
          "name": "maker",
          "type": "bool"
        },
        {
          "components": [
            {
              "internalType": "int256",
              "name": "longitude",
              "type": "int256"
            },
            {
              "internalType": "int256",
              "name": "latitude",
              "type": "int256"
            }
          ],
          "internalType": "struct Position",
          "name": "position",
          "type": "tuple"
        },
        {
          "internalType": "bytes32",
          "name": "username",
          "type": "bytes32"
        },
        {
          "internalType": "uint256",
          "name": "from",
          "type": "uint256"
        },
        {
          "internalType": "uint256",
          "name": "to",
          "type": "uint256"
        },
        {
          "internalType": "uint256",
          "name": "timestamp",
          "type": "uint256"
        }
      ],
      "name": "addPlayer",
      "outputs": [],
      "stateMutability": "payable",
      "type": "function",
      "payable": true
    },
    {
      "inputs": [],
      "name": "getPlayerInfo",
      "outputs": [
        {
          "components": [
            {
              "internalType": "enum PlayerType",
              "name": "playerType",
              "type": "uint8"
            },
            {
              "internalType": "bytes32",
              "name": "username",
              "type": "bytes32"
            },
            {
              "components": [
                {
                  "internalType": "int256",
                  "name": "longitude",
                  "type": "int256"
                },
                {
                  "internalType": "int256",
                  "name": "latitude",
                  "type": "int256"
                }
              ],
              "internalType": "struct Position",
              "name": "position",
              "type": "tuple"
            },
            {
              "internalType": "uint256",
              "name": "reputation",
              "type": "uint256"
            },
            {
              "internalType": "uint256",
              "name": "weight",
              "type": "uint256"
            },
            {
              "internalType": "uint256",
              "name": "timestampCreation",
              "type": "uint256"
            }
          ],
          "internalType": "struct AirPlayer",
          "name": "airPlayer",
          "type": "tuple"
        },
        {
          "components": [
            {
              "internalType": "uint256",
              "name": "avaiabilityRangeFrom",
              "type": "uint256"
            },
            {
              "internalType": "uint256",
              "name": "avaiabilityRangeTo",
              "type": "uint256"
            },
            {
              "internalType": "bool",
              "name": "avaiableToPrint",
              "type": "bool"
            }
          ],
          "internalType": "struct AirMaker",
          "name": "airMaker",
          "type": "tuple"
        }
      ],
      "stateMutability": "view",
      "type": "function",
      "constant": true
    },
    {
      "inputs": [
        {
          "internalType": "uint256",
          "name": "timestamp_request",
          "type": "uint256"
        }
      ],
      "name": "getMakersInfo",
      "outputs": [
        {
          "internalType": "address[]",
          "name": "addr",
          "type": "address[]"
        },
        {
          "components": [
            {
              "internalType": "enum PlayerType",
              "name": "playerType",
              "type": "uint8"
            },
            {
              "internalType": "bytes32",
              "name": "username",
              "type": "bytes32"
            },
            {
              "components": [
                {
                  "internalType": "int256",
                  "name": "longitude",
                  "type": "int256"
                },
                {
                  "internalType": "int256",
                  "name": "latitude",
                  "type": "int256"
                }
              ],
              "internalType": "struct Position",
              "name": "position",
              "type": "tuple"
            },
            {
              "internalType": "uint256",
              "name": "reputation",
              "type": "uint256"
            },
            {
              "internalType": "uint256",
              "name": "weight",
              "type": "uint256"
            },
            {
              "internalType": "uint256",
              "name": "timestampCreation",
              "type": "uint256"
            }
          ],
          "internalType": "struct AirPlayer[]",
          "name": "pl",
          "type": "tuple[]"
        },
        {
          "components": [
            {
              "internalType": "uint256",
              "name": "avaiabilityRangeFrom",
              "type": "uint256"
            },
            {
              "internalType": "uint256",
              "name": "avaiabilityRangeTo",
              "type": "uint256"
            },
            {
              "internalType": "bool",
              "name": "avaiableToPrint",
              "type": "bool"
            }
          ],
          "internalType": "struct AirMaker[]",
          "name": "mk",
          "type": "tuple[]"
        }
      ],
      "stateMutability": "view",
      "type": "function",
      "constant": true
    },
    {
      "inputs": [],
      "name": "getPlayers",
      "outputs": [
        {
          "components": [
            {
              "internalType": "enum PlayerType",
              "name": "playerType",
              "type": "uint8"
            },
            {
              "internalType": "bytes32",
              "name": "username",
              "type": "bytes32"
            },
            {
              "components": [
                {
                  "internalType": "int256",
                  "name": "longitude",
                  "type": "int256"
                },
                {
                  "internalType": "int256",
                  "name": "latitude",
                  "type": "int256"
                }
              ],
              "internalType": "struct Position",
              "name": "position",
              "type": "tuple"
            },
            {
              "internalType": "uint256",
              "name": "reputation",
              "type": "uint256"
            },
            {
              "internalType": "uint256",
              "name": "weight",
              "type": "uint256"
            },
            {
              "internalType": "uint256",
              "name": "timestampCreation",
              "type": "uint256"
            }
          ],
          "internalType": "struct AirPlayer[]",
          "name": "pl",
          "type": "tuple[]"
        }
      ],
      "stateMutability": "view",
      "type": "function",
      "constant": true
    },
    {
      "inputs": [],
      "name": "getNPlayers",
      "outputs": [
        {
          "internalType": "uint256",
          "name": "",
          "type": "uint256"
        }
      ],
      "stateMutability": "view",
      "type": "function",
      "constant": true
    },
    {
      "inputs": [],
      "name": "getNMakers",
      "outputs": [
        {
          "internalType": "uint256",
          "name": "",
          "type": "uint256"
        }
      ],
      "stateMutability": "view",
      "type": "function",
      "constant": true
    },
    {
      "inputs": [],
      "name": "getNCallers",
      "outputs": [
        {
          "internalType": "uint256",
          "name": "",
          "type": "uint256"
        }
      ],
      "stateMutability": "view",
      "type": "function",
      "constant": true
    },
    {
      "inputs": [
        {
          "internalType": "address",
          "name": "adr",
          "type": "address"
        }
      ],
      "name": "isMaker",
      "outputs": [
        {
          "internalType": "bool",
          "name": "",
          "type": "bool"
        }
      ],
      "stateMutability": "view",
      "type": "function",
      "constant": true
    }
  ],
  "bytecode": "0x608060405234801561001057600080fd5b50610fca806100206000396000f3fe6080604052600436106100a75760003560e01c8063acb0acad11610064578063acb0acad14610192578063ca04dbb4146101a5578063d1df81df146101d4578063e75600c3146101f7578063eb1ed9b314610217578063f8a98d4c1461022c57600080fd5b806309c95e10146100ac5780638a05b329146100f15780638b5b9ccc1461011057806393778d9014610132578063a71240d31461016a578063a9613ba31461017f575b600080fd5b3480156100b857600080fd5b506100dc6100c7366004610bfa565b60046020526000908152604090205460ff1681565b60405190151581526020015b60405180910390f35b3480156100fd57600080fd5b506001545b6040519081526020016100e8565b34801561011c57600080fd5b50610125610241565b6040516100e89190610e81565b34801561013e57600080fd5b5061015261014d366004610d04565b61039f565b6040516001600160a01b0390911681526020016100e8565b61017d610178366004610c2a565b6103c9565b005b61017d61018d366004610c87565b61052e565b61017d6101a0366004610cbd565b61057c565b3480156101b157600080fd5b506101c56101c0366004610d04565b6105c2565b6040516100e893929190610dc9565b3480156101e057600080fd5b506101e9610914565b6040516100e8929190610ed7565b34801561020357600080fd5b506100dc610212366004610bfa565b610a7b565b34801561022357600080fd5b50610102610ab2565b34801561023857600080fd5b50600354610102565b60015460609067ffffffffffffffff81111561025f5761025f610f7e565b60405190808252806020026020018201604052801561029857816020015b610285610b48565b81526020019060019003908161027d5790505b50905060005b60015481101561039b57600080600183815481106102be576102be610f68565b60009182526020808320909101546001600160a01b031683528201929092526040908101909120815160c081019092528054829060ff16600181111561030657610306610f52565b600181111561031757610317610f52565b81526020016001820154815260200160028201604051806040016040529081600082015481526020016001820154815250508152602001600482015481526020016005820154815260200160068201548152505082828151811061037d5761037d610f68565b6020026020010181905250808061039390610f21565b91505061029e565b5090565b600381815481106103af57600080fd5b6000918252602090912001546001600160a01b0316905081565b6001805480820182557fb10e2d527612073b26eecdfd717e6a320cf44b4afac2b0732d9fcbe2b7fa0cf60180546001600160a01b031916339081179091556000908152600460209081526040808320805460ff1990811686179091559183905290912080549091168217905586151514156104b75733600081815260208181526040808320805460ff199081169091556002928390529083209182018054909116905585815560019081018590556003805491820181559091527fc2575a0e9e593c00f959f8c92f12db2869c3395a3b0502d05e2516446f71f85b0180546001600160a01b03191690911790555b33600081815260208181526040918290206001808201899055898301516003808401919091558a51600284015560068301879055600483015560059091015590519182527f1c5d06a0672792ca8a9a7e2ec6e3d76dbfee51e2a23c2340bf70f81a29c9dd6d910160405180910390a1505050505050565b3360009081526004602052604090205460ff16156105675760405162461bcd60e51b815260040161055e90610e94565b60405180910390fd5b61057760008385600080866103c9565b505050565b3360009081526004602052604090205460ff16156105ac5760405162461bcd60e51b815260040161055e90610e94565b6105bb600185878686866103c9565b5050505050565b606080606060006105d285610acf565b90508067ffffffffffffffff8111156105ed576105ed610f7e565b60405190808252806020026020018201604052801561062657816020015b610613610b48565b81526020019060019003908161060b5790505b5092508067ffffffffffffffff81111561064257610642610f7e565b60405190808252806020026020018201604052801561069957816020015b610686604051806060016040528060008152602001600081526020016000151581525090565b8152602001906001900390816106605790505b5091508067ffffffffffffffff8111156106b5576106b5610f7e565b6040519080825280602002602001820160405280156106de578160200160208202803683370190505b50935060005b60035481101561090b57856000806003848154811061070557610705610f68565b60009182526020808320909101546001600160a01b0316835282019290925260400190206006015410156108f9576003818154811061074657610746610f68565b9060005260206000200160009054906101000a90046001600160a01b031685828151811061077657610776610f68565b60200260200101906001600160a01b031690816001600160a01b031681525050600080600383815481106107ac576107ac610f68565b60009182526020808320909101546001600160a01b031683528201929092526040908101909120815160c081019092528054829060ff1660018111156107f4576107f4610f52565b600181111561080557610805610f52565b81526020016001820154815260200160028201604051806040016040529081600082015481526020016001820154815250508152602001600482015481526020016005820154815260200160068201548152505084828151811061086b5761086b610f68565b6020026020010181905250600260006003838154811061088d5761088d610f68565b60009182526020808320909101546001600160a01b0316835282810193909352604091820190208151606081018352815481526001820154938101939093526002015460ff1615159082015283518490839081106108ed576108ed610f68565b60200260200101819052505b8061090381610f21565b9150506106e4565b50509193909250565b61091c610b48565b610942604051806060016040528060008152602001600081526020016000151581525090565b3360009081526004602052604090205460ff1615156001146109a65760405162461bcd60e51b815260206004820152601960248201527f506c61796572206e6f7420696e207468652073797374656d2e00000000000000604482015260640161055e565b33600090815260208181526040808320600290925291829020825160c081019093528154919290918390829060ff1660018111156109e6576109e6610f52565b60018111156109f7576109f7610f52565b815260018281015460208084019190915260408051808201825260028087015482526003870154828501528286019190915260048601546060808701919091526005870154608087015260069096015460a0909501949094528051948501815286548552918601549084015293015460ff1615159281019290925294909350915050565b6000806001600160a01b03831660009081526020819052604090205460ff166001811115610aab57610aab610f52565b1492915050565b6000610abd60035490565b600154610aca9190610f0a565b905090565b6000805b600354811015610b42578260008060038481548110610af457610af4610f68565b60009182526020808320909101546001600160a01b031683528201929092526040019020600601541015610b305781610b2c81610f21565b9250505b80610b3a81610f21565b915050610ad3565b50919050565b6040805160c08101909152806000815260200160008019168152602001610b82604051806040016040528060008152602001600081525090565b81526020016000815260200160008152602001600081525090565b600060408284031215610baf57600080fd5b6040516040810181811067ffffffffffffffff82111715610be057634e487b7160e01b600052604160045260246000fd5b604052823581526020928301359281019290925250919050565b600060208284031215610c0c57600080fd5b81356001600160a01b0381168114610c2357600080fd5b9392505050565b60008060008060008060e08789031215610c4357600080fd5b86358015158114610c5357600080fd5b9550610c628860208901610b9d565b959895975050505060608401359360808101359360a0820135935060c0909101359150565b600080600060808486031215610c9c57600080fd5b83359250610cad8560208601610b9d565b9150606084013590509250925092565b600080600080600060c08688031215610cd557600080fd5b85359450610ce68760208801610b9d565b949794965050505060608301359260808101359260a0909101359150565b600060208284031215610d1657600080fd5b5035919050565b600081518084526020808501945080840160005b83811015610d5757610d44878351610d62565b60e0969096019590820190600101610d31565b509495945050505050565b805160028110610d8257634e487b7160e01b600052602160045260246000fd5b8083525060208101516020830152604081015180516040840152602081015160608401525060608101516080830152608081015160a083015260a081015160c08301525050565b60608082528451828201819052600091906020906080850190828901855b82811015610e0c5781516001600160a01b031684529284019290840190600101610de7565b50505084810382860152610e208188610d1d565b8581036040870152865180825283880192509083019060005b81811015610e7257610e6283855180518252602080820151908301526040908101511515910152565b9284019291850191600101610e39565b50909998505050505050505050565b602081526000610c236020830184610d1d565b60208082526023908201527f506c6179657220616c726561647920616464656420746f20746865207379737460408201526232b69760e91b606082015260800190565b6101408101610ee68285610d62565b825160e0830152602083015161010083015260408301511515610120830152610c23565b600082821015610f1c57610f1c610f3c565b500390565b6000600019821415610f3557610f35610f3c565b5060010190565b634e487b7160e01b600052601160045260246000fd5b634e487b7160e01b600052602160045260246000fd5b634e487b7160e01b600052603260045260246000fd5b634e487b7160e01b600052604160045260246000fdfea2646970667358221220e0091deeb57bbcdc1ee2918b9aa5907342a4abc2a134d8c7ae95971fd1f42b0b64736f6c63430008070033",
  "immutableReferences": {},
  "source": "/*\n * @author Pipitone Antonio \n * @SPDX-License-Identifier: UNLICENSED\n */\npragma solidity >=0.4.22 <0.9.0;\npragma experimental ABIEncoderV2;\n\nimport \"./Structs/UserStructs.sol\";\n\ncontract User {\n    //Player - Common Details Maker-Caller\n    mapping (address => AirPlayer) private airPlayers;  \n    address[] private playerAddresses;\n    //Details Maker\n    mapping (address =>AirMaker) private airMakers;\n    address[] public makerAddress;\n    //To check if a user is registered; \n    mapping (address => bool) public isPlayer;\n\n\n    //Events-----------------------------\n    event newPlayerAddition(address player_address);\n    //-----------------------------------\n\n\n    //Functions--------------------------\n    //Functions Players\n    function addCaller(bytes32 username, Position memory position, uint256 timestamp/*, bytes32 _hashMsg, bytes memory _signature*/)\n    public payable{\n        //Check for existing player\n        require( isPlayer [msg.sender] == false, \"Player already added to the system.\" );\n        //checkIdentity(_hashMsg, _signature);\n        addPlayer(false, position, username, 0, 0, timestamp);\n\n    }\n\n    function addMaker(bytes32 username, Position memory position, uint256 from, uint256 to, uint256 timestamp/*, bytes32 _hashMsg, bytes memory _signature*/)\n    public payable{\n        //Check for existing player\n        require( isPlayer [msg.sender] == false, \"Player already added to the system.\" );\n        //checkIdentity(_hashMsg, _signature);\n        addPlayer(true, position, username, from, to, timestamp);\n    }\n\n    function addPlayer(bool maker, Position memory position, bytes32 username, uint256 from, uint256 to, uint256 timestamp) \n    public payable{\n        //Push Player address\n        playerAddresses.push(msg.sender);\n\n        //Set player to 1 to denote that player is added to the system\n        isPlayer[msg.sender] = true;\n\n        airPlayers[msg.sender].playerType = PlayerType.CALLER;\n        \n        if (maker==true){\n            airPlayers[msg.sender].playerType = PlayerType.MAKER;\n            airMakers[msg.sender].avaiableToPrint = false;\n            airMakers[msg.sender].avaiabilityRangeFrom = from;\n            airMakers[msg.sender].avaiabilityRangeTo = to;\n            makerAddress.push(msg.sender);\n        }\n\n        airPlayers[msg.sender].username = username;\n        airPlayers[msg.sender].position.latitude = position.latitude;\n        airPlayers[msg.sender].position.longitude = position.longitude;\n        airPlayers[msg.sender].timestampCreation = timestamp;\n\n\n        //Default value\n        airPlayers[msg.sender].reputation = 3;  \n        airPlayers[msg.sender].weight = 1;\n        \n        //Event for successful registration\n        emit newPlayerAddition(msg.sender);\n    }\n\n    function getPlayerInfo()\n    public view \n    returns (AirPlayer memory airPlayer, AirMaker memory airMaker){\n        require( isPlayer [msg.sender] == true, \"Player not in the system.\" );\n\n        return (airPlayers[msg.sender], airMakers[msg.sender]);\n    }\n\n    //Scheduling utilities function\n    function getNMakersBeforeTimestamp(uint256 timestamp_request)\n    private view returns(uint256 n){\n        for (uint i = 0; i < makerAddress.length; i++) {\n            if(airPlayers[makerAddress[i]].timestampCreation<timestamp_request){\n                n++;\n            }\n        }\n        return n;\n    }\n\n    function getMakersInfo(uint256 timestamp_request) \n    public view \n    returns (address[] memory addr, AirPlayer[] memory pl, AirMaker[] memory mk){\n        uint256 nMakers = getNMakersBeforeTimestamp(timestamp_request);\n        pl = new AirPlayer[](nMakers);\n        mk = new AirMaker[](nMakers);\n        addr = new address[](nMakers);\n        for (uint i = 0; i < makerAddress.length; i++) {\n            if(airPlayers[makerAddress[i]].timestampCreation<timestamp_request){\n                addr[i] = makerAddress[i];\n                pl[i] = airPlayers[makerAddress[i]];\n                mk[i] = airMakers[makerAddress[i]];\n            }\n        }\n        return (addr,pl,mk);\n    }\n\n    //--------\n\n    \n    //TEST Function\n    function getPlayers() \n    public view \n    returns (AirPlayer[] memory pl){\n        pl = new AirPlayer[](playerAddresses.length);\n        for (uint i = 0; i < playerAddresses.length; i++) {\n            pl[i] = airPlayers[playerAddresses[i]];\n        }\n        return pl;\n    }\n\n    //TEST Function \n    function getNPlayers()\n    public view returns(uint256){\n        return playerAddresses.length;\n    }\n\n    //TEST Function\n    function getNMakers()\n    public view returns(uint256){\n        return makerAddress.length;\n    }\n\n    //TEST Function\n    function getNCallers()\n    public view returns(uint256){\n        return getNPlayers() - getNMakers();\n    }\n\n    function isMaker(address adr) \n    public view returns(bool){\n        return airPlayers[adr].playerType == PlayerType.MAKER;\n    } \n\n    function checkIdentity(bytes32 _hashMsg, bytes memory _signature) \n    private view{\n        //Check for identity of the user registering\n        (uint8 _v, bytes32 _r, bytes32 _s) = splitSignature(_signature);\n        bytes32 prefixedHash = keccak256(abi.encodePacked(\"\\x19Ethereum Signed Message:\\n32\", _hashMsg));\n        require(ecrecover(prefixedHash, _v, _r, _s) == msg.sender, \"The registration identity verification failed.\"); \n    }\n\n    function splitSignature(bytes memory sig)\n    private pure\n    returns (uint8, bytes32, bytes32){\n        require(sig.length == 65);\n\n        bytes32 r;\n        bytes32 s;\n        uint8 v;\n\n        assembly {\n            // first 32 bytes, after the length prefix\n            r := mload(add(sig, 32))\n            // second 32 bytes\n            s := mload(add(sig, 64))\n            // final byte (first byte of the next 32 bytes)\n            v := byte(0, mload(add(sig, 96)))\n        }\n        \n        if (v < 27) {\n            v += 27;\n        }\n\n        return (v, r, s);\n    }\n}\n",
  "sourcePath": "/Users/antoniopipitone/Desktop/Air Factories 2.0/af2-smart-contract/contracts/1_OnBoarding/User.sol",
  "compiler": {
    "name": "solc",
    "version": "0.8.7+commit.e28d00a7.Emscripten.clang"
  },
  "schemaVersion": "3.4.4",
  "updatedAt": "2022-03-12T16:05:36.428Z",
  "networkType": "ethereum",
  "devdoc": {
    "kind": "dev",
    "methods": {},
    "version": 1
  },
  "userdoc": {
    "kind": "user",
    "methods": {},
    "version": 1
  }
}